:0400000000EF80F09D
:100008006D4B6D4B6D4B6D4B40003A4B40006D4B4B
:100018006D4B6D4B6D4B6D4B6D4B6D4B6D4B6D4B18
:100028006D4B4000400040006D4B6D4B6D4B6D4B70
:100038006D4B6D4B6D4B6D4B6D4B6D4B6D4B6D4BF8
:100048006D4B6D4B6D4B6D4B400040006D4B6D4BD8
:100058006D4B6D4B6D4B40006D4B6D4B6D4B6D4B50
:100068006D4B344B6D4B6D4B6D4B6D4B6D4B6D4B01
:100078006D4B6D4B6D4B6D4B4000ED496D4B6D4BB2
:100088006D4B6D4B6D4B6D4B6D4B6D4B6D4B6D4BA8
:100098006D4B6D4B6D4B6D4B40006D4B4000400000
:1000A8006D4B2E4B6D4B6D4B6D4B6D4B6D4B6D4BC7
:1000B8006D4B6D4B6D4B6D4B6D4B6D4B6D4B6D4B78
:1000C8006D4B6D4B6D4B6D4B6D4B6D4B6D4B6D4B68
:1000D8006D4B6D4B6D4B6D4B6D4B6D4B6D4B6D4B58
:1000E80040006D4B6D4B6D4B4000400040004000A0
:0A00F8006D4B85496D4B6D4BFF0009
:10BFFE000000000000000000000000000000000033
:10C00E000000000000000000000000000000000022
:10C01E000000000000000000000000000000000012
:10C02E000000000000000000000000000000000002
:10C03E0000000000000000000000000000000000F2
:10C04E0000000000000000000000000000000000E2
:10C05E0000000000000000000000000000000000D2
:10C06E0000000000000000000000000000000000C2
:10C07E0000000000000000000000000000000000B2
:10C08E0000000000000000000000000000000000A2
:10C09E000000000000000000000000000000000092
:10C0AE000000000000000000000000000000000082
:10C0BE00000010CE10008EC1C0A68027048D142063
:10C0CE00F88D1B810D27048D0A20F68D06860A8DAC
:10C0DE000220EEC602F4801827F9B7801939C6017E
:10C0EE00F4801827F9B68019393B000000000000D3
:10C0FE000000000000000000000000000000000032
:10C10E000000000000000000000000000000000021
:10C11E000000000000000000000000000000000011
:10C12E000000000000000000000000000000000001
:10C13E0000000000000000000000000000000000F1
:10C14E0000000000000000000000000000000000E1
:10C15E0000000000000000000000000000000000D1
:10C16E0000000000000000000000000000000000C1
:10C17E0000000000000000000000000000000000B1
:10C18E0000000000000000000000000000000000A1
:10C19E000000000000000000000000000000000091
:10C1AE000000000000000000000000000000000081
:10C1BE0000000D0A4563686F6261636B20546573FE
:10C1CE0074203638303920656D756C617465720D6A
:10C1DE000A00000000000000000000000000000047
:10C1EE000000000000000000000000000000000041
:10C1FE000000000000000000000000000000000031
:10C20E000000000000000000000000000000000020
:10C21E000000000000000000000000000000000010
:10FFEE0000000000C0F7C0F7C0F7C0F7C0F7C0F7B9
:02FFFE00C0C081
:020000040001F9
:1000000004EF8DF0000E1A6E000E196E10C52DF55E
:1000100011C52EF52DC527F52EC528F5000E2C6E21
:10002000400E2B6E48EF80F06100B4F4D9F461000B
:10003000B8F4DAF4200EDE18D8B421EF80F023EF04
:1000400080F033EF80F06100B4F4D9F46100B8F4CB
:10005000DAF461009CF4E1F46100A0F4E2F4DFC49E
:10006000E7F4274A282A6100B4F4D9F46100B8F40F
:10007000DAF4DF50D8A43FEF80F041EF80F043EF97
:1000800080F055EF80F02D4A2E2A2B06D8A02C06A2
:100090002CBE55EF80F02C5006E12B04D8B053EF66
:1000A00080F055EF80F014EF80F010C52DF511C5EC
:1000B0002EF520EE02F02D50D9262E50DA22DF50F8
:1000C0001F6E20EE03F02D50D9262E50DA22DF507D
:1000D000206E000E216E1F0E056E050E066E6BEC77
:1000E0008CF005C529F506C52AF5000E1E6E000E1A
:1000F0001D6E000E2C6E000E2B6EBBEF80F02BC51C
:1001000012F52CC513F5D890123613362DC514F5FB
:100110002EC515F51250142613501522020E142464
:10012000D96E000E1520DA6EDF501F6E2BC512F54A
:100130002CC513F5D890123613362DC514F52EC5DF
:1001400015F51250142613501522030E1424D96EDF
:10015000000E1520DA6EDF50206E000E216E1F0E8D
:10016000056E050E066E6BEC8CF005501D260650D4
:100170001E222B4A2C2A29502B5C2C50800A126EEE
:100180002A50800A1258D8A0C8EF80F0CAEF80F039
:100190007FEF80F029C512F52AC513F5D8901236E5
:1001A00013362DC514F52EC515F51250142613500F
:1001B0001522020E1424D96E000E1520DA6EDF50BF
:1001C0001F6E29C512F52AC513F5D89012361336BD
:1001D0002DC514F52EC515F51250142613501522F1
:1001E000030E1424D96E000E1520DA6EDF50206E37
:1001F000000E216E1F0E056E050E066E6BEC8CF068
:1002000005C51BF506C51CF5FF0E1D14126E000E6C
:100210001E14136EFF0E12181D6E13501E6E1B500F
:100220001D1809E11C501E18D8B419EF81F01BEFFE
:1002300081F021EF81F0000E116E020E106E3FEF83
:1002400082F06100B4F4D9F46100B8F4DAF4530E2A
:10025000DE18D8A42EEF81F030EF81F03BEF82F072
:1002600022EF82F02DC527F52EC528F5080E2D2486
:100270002D6E000E2E202E6E000E2C6E000E2B6E9C
:1002800068EF81F06100B4F4D9F46100B8F4DAF4F5
:10029000DF501F6E2D4A2E2A6100B4F4D9F461009C
:1002A000B8F4DAF4DF50206E2D4A2E2A000E216EAB
:1002B0001F0E056E050E066E6BEC8CF0055061008E
:1002C0009CF4D9F46100A0F4DAF4DF6E274A282AFE
:1002D000FD0E126EFF0E136E29C514F52AC515F515
:1002E000125014261350152214502B5C2C50800AE7
:1002F000166E1550800A1658D8A081EF81F083EF52
:1003000081F042EF81F061009CF4D9F46100A0F427
:10031000DAF4000EDF6E000E1A6E030E196E3BEF5C
:1003200082F020EE04F02D50D9262E50DA22DF5034
:100330001F6E20EE05F02D50D9262E50DA22DF5008
:10034000206E20EE06F02D50D9262E50DA22DF50F6
:10035000216E20EE07F02D50D9262E50DA22DF50E4
:10036000226E000E236E1F0E056E050E066E6BECE0
:100370008CF005C517F506C518F5080E2D242D6E51
:10038000000E2E202E6E000E2C6E000E2B6EF7EF40
:1003900081F06100B4F4D9F46100B8F4DAF4DF500C
:1003A0001F6E2D4A2E2A6100B4F4D9F46100B8F40E
:1003B000DAF4DF50206E2D4A2E2A000E216E1F0E19
:1003C000056E050E066E6BEC8CF005C51BF506C5BB
:1003D0001CF517C50AF518C50BF51BC50CF51CC592
:1003E0000DF526EC95F0174A182A2B4A2C2AFD0EFB
:1003F000126EFF0E136E29C514F52AC515F512509D
:1004000014261350152214502B5C2C50800A166EA3
:100410001550800A1658D8A010EF82F012EF82F023
:10042000C9EF81F0610050F5D9F4610054F5DAF4B8
:10043000000EDF6E3BEF82F0000E1A6E010E196E99
:1004400012EF82F020EE01F02D50D9262E50DA2244
:10045000DF50300AD8B432EF81F0010AD8B491EFFE
:1004600081F0040AD8B412EF82F00C0AD8B41CEF61
:1004700082F012EF82F019C510F51AC511F51200BD
:1004800023BE4EEF82F0235007E1020E225CD8B06B
:100490004CEF82F04EEF82F058EF82F024C5B2F6B6
:1004A00025C5B3F626C5B4F627C5B5F67BEF82F0B1
:1004B000000E0601A06FA00E056E060E066E20EE61
:1004C00002F02050D9262150DA22610078F307F596
:1004D000610074F308F577EC93F0A00E056E060E3C
:1004E000066E6BEC8CF005C5B2F606C5B3F607C513
:1004F000B4F608C5B5F623BE89EF82F0235007E1B4
:10050000030E225CD8B087EF82F089EF82F098EF7B
:1005100082F0FF0E0601B225B66F000EB321B76F51
:10052000000EB421B86F000EB521B96FBBEF82F099
:10053000000E0601A06FA00E056E060E066E20EEE0
:1005400004F02050D9262150DA22610078F307F513
:10055000610074F308F577EC93F0A00E056E060EBB
:10056000066E6BEC8CF005C5B6F606C5B7F607C58A
:10057000B8F608C5B9F61EC505F51FC506F55E0E29
:10058000076E0A0E086E7AEC95F0000E0601BB6F3E
:10059000000EBA6F000E506F000E006FB2C6BEF6AE
:1005A000B3C6BFF6B4C6C0F6B5C6C1F654EF84F004
:1005B0001EC501F51FC502F50DEC95F001C5B0F69D
:1005C00002C5B1F60601B105B011D8B4EAEF82F068
:1005D000ECEF82F002EF83F01B0EB019B111D8A43A
:1005E000F4EF82F0F6EF82F002EF83F01EC505F51E
:1005F0001FC506F5990E076E050E086E7AEC95F08C
:1006000063EF84F0BEC605F5BFC606F516EC94F0A0
:1006100005C5C2F606C5C3F6A00E0A6E060E0B6E21
:10062000FF0E0601C215286E000EC315296E28C5DF
:100630000CF529C50DF5000E0DBEFF0E0E6E0F6EEA
:10064000000E116E020E106E27EC8BF0500E056E30
:10065000060E066EFD0E076E060E086E77EC93F022
:10066000500E056E060E066EA00E076E060E086E84
:1006700077EC93F00601C3BF47EF83F0C35109E164
:10068000200EC25DD8A047EF83F049EF83F05DEF05
:1006900083F0C3BF57EF83F0C35107E17F0EC25D04
:1006A000D8B055EF83F057EF83F05DEF83F0C2C60B
:1006B000A0F6000EA16F61EF83F02E0EA06F000E6A
:1006C000A16F000E056E060E066EA00E076E060EDA
:1006D000086E77EC93F00601BA51BB11D8A473EF02
:1006E00083F075EF83F09BEF83F0A00E0A6E060E89
:1006F0000B6EBEC60CF5BFC60DF5C0C60EF5C1C665
:100700000FF5000E116E060E106E27EC8BF01EC555
:1007100005F51FC506F5A00E076E060E086E7AECED
:1007200095F01EC505F51FC506F5F10E076E060E00
:10073000086E7AEC95F00601BA4BBB2BBBBFACEF51
:1007400083F0BB5107E1100EBA5DD8B0AAEF83F079
:10075000ACEF83F0BBEF83F0B651BE5DB751BF592C
:10076000B851C059B951C159D8A0B9EF83F0BBEF06
:1007700083F04EEF84F0000EBB6F000EBA6F500E88
:10078000056E060E066EF9EC93F005503008060172
:10079000C26F0650D8A0E82A0008C36F000EBD6FD4
:1007A000000EBC6FE1EF83F0500E056E060E066E74
:1007B000FD0E076E060E086E77EC93F00601BC4B3B
:1007C000BD2BC251BC5DBD51800A286EC351800A49
:1007D0002858D8A0EEEF83F0F0EF83F0D4EF83F049
:1007E000000E056E060E066EF9EC93F0055010082B
:1007F0000601C26F0650D8A0E82A0008C36F000E99
:10080000BD6F000EBC6F12EF84F0000E056E060E79
:10081000066EFD0E076E060E086E77EC93F006016D
:10082000BC4BBD2BC251BC5DBD51800A286EC3516B
:10083000800A2858D8A01FEF84F021EF84F005EF3C
:1008400084F01EC505F51FC506F5500E076E060E91
:10085000086E7AEC95F01EC505F51FC506F5F50E78
:10086000076E060E086E7AEC95F01EC505F51FC5DD
:1008700006F5000E076E060E086E7AEC95F01EC5A2
:1008800005F51FC506F5F80E076E060E086E7AEC24
:1008900095F0000E0601506F000E006F010EBE278E
:1008A000000EBF23C023C123BE51B65DBF51B7594F
:1008B000C051B859C151B959D8B061EF84F063EF54
:1008C00084F0D8EF82F0BEC61EF5BFC61FF5C0C6C5
:1008D00020F5C1C621F512000CC519F50DC51AF594
:1008E000610020F4D9F4610024F4DAF4DF50D8A4D4
:1008F0007CEF84F07EEF84F088EF84F0610064F494
:10090000D9F4610068F4DAF4000EDE6E000EDD6EDC
:10091000000E136E500E126E000E116E000E106E51
:10092000FAEF85F006C501F507C502F50DEC95F067
:1009300001C517F502C518F518041710D8B4A3EFB0
:1009400084F0A5EF84F0F7EF85F017C514F5185083
:1009500009E1200E175CD8A0B0EF84F0B2EF84F06C
:10096000F4EF84F0185007E17F0E175CD8B0BBEFAE
:1009700084F0BDEF84F0F4EF84F0610064F4D9F406
:10098000610068F4DAF40A50DE5C0B50DE58D8B02F
:10099000CCEF84F0CEEF84F0F4EF84F0610064F4E7
:1009A000D9F4610068F4DAF4610078F30EF56100BF
:1009B00074F30FF50E500824D96E0F500920DA6E2B
:1009C000610050F4DFF4610064F4D9F4610068F46C
:1009D000DAF4DE2A000EDD2206C502F507C503F5AE
:1009E00014C504F51EEC96F00D0E17181810D8A4B7
:1009F000FCEF84F0FEEF84F03DEF85F0610064F4DD
:100A0000D9F4610068F4DAF40A50DE5C0B50DE5869
:100A1000D8B00DEF85F00FEF85F03DEF85F0610068
:100A200064F4D9F4610068F4DAF4610078F30EF547
:100A3000610074F30FF50E500824D96E0F50092091
:100A4000DA6E000EDF6E000E136E000E126E000ED8
:100A5000116E010E106E06C502F507C503F50D0EE9
:100A6000046E1EEC96F006C502F507C503F50A0EE6
:100A7000046E1EEC96F03DEF85F0080E1718181066
:100A8000D8A445EF85F047EF85F0C0EF85F0610011
:100A900064F4D9F4610068F4DAF4010EDBBE5AEFB5
:100AA00085F0010EDB5008E1DE04D8A05AEF85F096
:100AB0005CEF85F0C0EF85F0610064F4D9F461006B
:100AC00068F4DAF4610078F315F5610074F316F553
:100AD00091EF85F015500824D96E16500920DA6E72
:100AE000155008240E6E165009200F6EFF0E0E24AE
:100AF000E16EFF0E0F20E26EDFC4E7F415500A5CD2
:100B00000B50800A0E6E1650800A0E58D8B08BEF2C
:100B100085F08DEF85F08FEF85F09FEF85F0154A1A
:100B2000162A15500824D96E16500920DA6EDF50A7
:100B3000D8A49DEF85F09FEF85F06AEF85F0610006
:100B400064F4D9F4610068F4DAF4DE06000EDD5ACC
:100B500006C502F507C503F5080E046E1EEC96F0F7
:100B600006C502F507C503F5200E046E1EEC96F0CF
:100B700006C502F507C503F5080E046E1EEC96F0D7
:100B80001B0E17181810D8A4C8EF85F0CAEF85F00F
:100B9000F7EF85F0610064F4D9F4610068F4DAF4E9
:100BA0000A50DE5C0B50DE58D8B0D9EF85F0DBEF91
:100BB00085F0F7EF85F0610064F4D9F4610068F422
:100BC000DAF4610078F30EF5610074F30FF50E505E
:100BD0000824D96E0F500920DA6E000EDF6E000E69
:100BE000136E000E126E000E116E020E106E1206C3
:100BF000D8A0130613BE07EF86F0135006E11204C7
:100C0000D8B005EF86F007EF86F092EF84F010C5BC
:100C100006F511C507F51200000E4B6E000E4A6E68
:100C20003EEF87F0000E066E010E056EFB0E076E9E
:100C3000060E086E7AEC95F0000E0701A06F060113
:100C4000CC4BCD2B98EF87F0000E076E010E066E91
:100C5000A00E086E070E096E000E0B6E400E0A6E97
:100C6000EF0E0C6E060E0D6E6CEC84F006C548F5AA
:100C700007C549F548044910D8A441EF86F043EF71
:100C800086F098EF87F0A00E056E070E066ECF0E69
:100C9000076E060E086E000E0A6E100E096E03EC4B
:100CA0008EF005C552F506C553F553BE60EF86F0CC
:100CB000535008E15204D8A060EF86F062EF86F04E
:100CC0006EEF86F0CFC606F5D0C607F5CCEC8BF0FC
:100CD00006C5CCF607C5CDF698EF87F0000E0601E5
:100CE000CD6F000ECC6F98EF87F0000E1F6E010ED7
:100CF0001E6ECF0E206E060E216E52C522F553C514
:100D000023F5C8C624F5C9C625F5CAC626F5CBC63F
:100D100027F540EC82F01EC5C8F61FC5C9F620C5F0
:100D2000CAF621C5CBF60B0E0601CD6FB80ECC6FFF
:100D300098EF87F0000E0A6E010E096ECF0E0B6E53
:100D4000060E0C6E52C50DF553C50EF5A00E0F6EB6
:100D5000070E106EB9EC93F009500A10D8A4B3EF47
:100D600086F0B5EF86F093EF86F01FEF86F0000E69
:100D7000306E010E2F6ECF0E316E060E326E52C5E2
:100D800033F553C534F576EC8AF02F043010D8A42F
:100D9000CCEF86F0CEEF86F098EF87F093EF86F0F9
:100DA000000E1F6E010E1E6ECF0E206E060E216EFF
:100DB00052C522F553C523F503EC89F093EF86F075
:100DC0009DEC8FF093EF86F0000E0A6E010E096E17
:100DD000CF0E0B6E060E0C6E52C50DF553C50EF5FB
:100DE00044EC96F093EF86F0000E0A6E010E096E49
:100DF000CF0E0B6E060E0C6E52C50DF553C50EF5DB
:100E000038EC96F093EF86F0000E0601CD6F000EE1
:100E1000CC6F000E066E010E056EF80E076E060E04
:100E2000086E7AEC95F0000E066E010E056EF80E57
:100E3000076E060E086E7AEC95F0000E4B6E010EF2
:100E40004A6E98EF87F00B0E0601CD6FB80ECC6F8F
:100E5000C292680E466EE40EE82EFED7462EFCD7F0
:100E600000D0C282000E066E010E056E600E076E87
:100E7000050E086E7AEC95F098EF87F0CCC646F533
:100E8000CDC647F54750000AD8B459EF87F0030A9A
:100E9000D8B464EF87F0070AD8B46BEF87F0030A81
:100EA000D8B47AEF87F00C0AD8B491EF87F06EEFE0
:100EB00086F04650000AD8B412EF86F0010AD8B482
:100EC00024EF86F06EEF86F04650F20AD8B475EF44
:100ED00086F06EEF86F04650240AD8B49AEF86F07A
:100EE000010AD8B4B7EF86F05B0AD8B4D0EF86F029
:100EF0006EEF86F04650300AD8B4E4EF86F00A0A66
:100F0000D8B4F4EF86F07E0AD8B423EF87F0940AC1
:100F1000D8B4E0EF86F0340AD8B404EF87F06EEF6F
:100F200086F04650B80AD8B46EEF86F06EEF86F0C1
:100F30004AC544F54BC545F51200000E126E000E71
:100F4000116E0501C451111809E1C5511218D8B428
:100F5000ACEF87F0AEEF87F0B8EF87F0C42906E179
:100F6000C529D8A4B6EF87F0B8EF87F032EF88F044
:100F7000D8901134D96E1234DA6E4E0ED926050E81
:100F8000DA22D8901134E16E1234E26E4C0EE12672
:100F9000050EE222DE50E61809E1DE50E618D8B46C
:100FA000D4EF87F0D6EF87F032EF88F03CEC95F085
:100FB0000009D8B4DEEF87F0E0EF87F032EF88F079
:100FC00011C50AF512C50BF50A3A0B3AF00E0B16CD
:100FD0000A500F0B0B12F00E0A16D30E0A24016EE4
:100FE000050E0B20026ED8901134D96E1234DA6ED1
:100FF0004C0ED926050EDA2261007CF30CF5010EA9
:10100000DE2661007CF30DF5000EDD220CC503F534
:101010000DC504F592EC96F02CEC96F0D8901134B6
:10102000D96E1234DA6E4C0ED926050EDA22010E74
:10103000DB5009E1100EDE5CD8A021EF88F023EF31
:1010400088F032EF88F0D8901134D96E1234DA6E0D
:101050004C0ED926050EDA22000EDE6E000EDD6E75
:1010600032EF88F0114A122A12BE40EF88F0125077
:1010700009E1020E115CD8A040EF88F042EF88F041
:10108000A1EF87F07FEC96F00009D8B44AEF88F022
:101090004CEF88F002EF89F0F0EC90F00E6E1F0E2E
:1010A0000E18D8A456EF88F058EF88F069EF88F052
:1010B000000E0501C56F010EC46F000E066E000E16
:1010C000056E47EC92F0000E066E010E056E47ECC1
:1010D00092F0000E126E000E116E0501C45111182F
:1010E00009E1C5511218D8B478EF88F07AEF88F08A
:1010F00084EF88F0C42906E1C529D8A482EF88F0DE
:1011000084EF88F0F2EF88F0D8901134D96E123461
:10111000DA6EC60ED926050EDA22610078F30AF5DA
:10112000610074F30BF5010E0A240F6E000E0B2004
:10113000106E105009E1100E0F5CD8A0A2EF88F0DD
:10114000A4EF88F0A8EF88F0000E106E000E0F6E6E
:10115000D8901134D96E1234DA6E500ED926050E9D
:10116000DA220F50DE1809E11050DE18D8B4BBEFB8
:1011700088F0BDEF88F0F2EF88F011C50AF512C5CE
:101180000BF50A3A0B3AF00E0B160A500F0B0B1226
:10119000F00E0A16E30E0A24056E050E0B20066EED
:1011A000D8901134D96E1234DA6EC60ED926050ED7
:1011B000DA22610078F307F5610074F308F50EC5D3
:1011C00009F589EC96F0D8901134D96E1234DA6EA4
:1011D000C60ED926050EDA2261003CF4DEF4610069
:1011E00040F4DDF4114A122A12BE00EF89F01250C9
:1011F00009E1020E115CD8A000EF89F002EF89F03E
:101200006DEF88F0120023BE0FEF89F0235009E143
:10121000040E225CD8A00FEF89F011EF89F0B4EF33
:1012200089F0000E3C6E000E3D6E000E3E6E000E0C
:101230003F6E20EE02F02050D9262150DA226100C4
:1012400078F305F5610074F306F56BEC8CF005C5D9
:1012500040F506C541F507C542F508C543F520EE42
:1012600004F02050D9262150DA22610078F305F5E8
:10127000610074F306F56BEC8CF005C534F506C51A
:1012800035F507C536F508C537F520EE06F02050D0
:10129000D9262150DA22610078F305F5610074F354
:1012A00006F56BEC8CF005C538F506C539F507C5B4
:1012B0003AF508C53BF573EF89F040C50AF541C51D
:1012C0000BF538C50CF539C50DF526EC95F0010E7A
:1012D0004026000E412242224322010E3C26000EEF
:1012E0003D223E223F224050345C4150355842500E
:1012F000365843503758D8B080EF89F082EF89F0E4
:101300005DEF89F0240E0A6E050E0B6E3CC50CF5E0
:101310003DC50DF53EC50EF53FC50FF5000E116E2E
:10132000080E106E27EC8BF01EC505F51FC506F5DF
:10133000BD0E076E050E086E7AEC95F01EC505F51C
:101340001FC506F5240E076E050E086E7AEC95F0A3
:101350001EC505F51FC506F56F0E076E050E086E56
:101360007AEC95F0BEEF89F01EC505F51FC506F5B0
:101370008C0E076E050E086E7AEC95F0120031ECBB
:1013800093F0C292C284C280C5EC96F002EC96F053
:10139000000EBBEC96F0CBEC96F0000E0601C76F8A
:1013A000000EC66F000EC625D96E100EC721DA6E6C
:1013B000000EDF6EC64BC72BC7BFE6EF89F0100EDD
:1013C000C75DD8A0E6EF89F0E8EF89F0D2EF89F0A9
:1013D00040EC91F00FEC92F0D4EC96F0D68E1A0E11
:1013E000E82EFED700D0C282000E0601CE6FB6EC0A
:1013F00096F005C5C4F606C5C5F69DEC87F0B6ECBB
:1014000096F005C5C6F606C5C7F60601C451C6194D
:1014100009E1C551C719D8B410EF8AF012EF8AF06C
:101420002AEF8AF0C605C711D8A419EF8AF01BEF7E
:101430008AF01CEF8AF0C290C651C711D8A423EFDE
:101440008AF025EF8AF026EF8AF0C280C6C6C4F67D
:10145000C7C6C5F6B6EC96F005040610D8A433EF5F
:101460008AF035EF8AF04CEF8AF00CEC86F04450AD
:101470004510D8B43EEF8AF040EF8AF04CEF8AF086
:10148000000E066E000E056E99EC93F0000E066ECF
:10149000000E056E47EC92F0B6EC96F00550061083
:1014A000D8A455EF8AF057EF8AF059EF8AF0D1ECC3
:1014B00096F00601CE2B140ECE6561EF8AF063EF35
:1014C0008AF0FDEF89F0000ECE6FB6EC96F00504C1
:1014D0000610D8A46EEF8AF070EF8AF0FDEF89F065
:1014E000B3EC95F0FDEF89F000EF80F0000E3A6E5E
:1014F000000E396E2FC506F530C507F554C508F541
:1015000055C509F5000E0B6E400E0A6EF30E0C6EFB
:10151000050E0D6E6CEC84F006C537F507C538F581
:1015200008EF8BF0000E3A6E000E396E22EF8BF052
:1015300054C510F555C511F502EC80F010C539F50C
:1015400011C53AF5D8EF8AF02FC505F530C506F577
:10155000350E076E070E086E7AEC95F0000E3A6EA7
:10156000010E396EEEEF8AF02FC505F530C506F590
:101570007E0E076E070E086E7AEC95F02FC505F506
:1015800030C506F554C507F555C508F57AEC95F054
:101590002FC505F530C506F5C10E076E050E086EA0
:1015A0007AEC95F0000E3A6E000E396EEEEF8AF08E
:1015B00039C535F53AC536F53650000AD8B4E3EFEB
:1015C0008AF0EEEF8AF03550020AD8B4A4EF8AF020
:1015D000010AD8B4B4EF8AF0EEEF8AF0610050F55A
:1015E000D9F4610054F5DAF4000EDF6E22EF8BF0CF
:1015F000000E3A6E010E396E2FC505F530C506F5A1
:10160000B20E076E050E086E7AEC95F0EEEF8AF0DA
:1016100037C535F538C536F53650000AD8B413EF5E
:101620008BF022EF8BF03550000AD8B492EF8AF09D
:10163000010AD8B498EF8AF0030AD8B4F8EF8AF018
:1016400022EF8BF039C52FF53AC530F51200000EA8
:10165000196E000E186E000E176E000E166EBCEF9F
:101660008BF00F0E0C141A6E1B6A300E1A26000E29
:101670001B221BBE45EF8BF01B5009E13A0E1A5C92
:10168000D8A045EF8BF047EF8BF04BEF8BF0070EB8
:101690001A26000E1B2218C51CF519C51DF51DBE06
:1016A0005CEF8BF01D5006E11C04D8B05AEF8BF0B4
:1016B0005CEF8BF05EEF8BF085EF8BF00AC505F5E4
:1016C0000BC506F51CC507F51DC508F50AC501F5CE
:1016D0000BC502F5FF0E1C24036EFF0E1D20046EC9
:1016E00092EC96F0096E89EC96F01C06D8A01D06C7
:1016F0001DBE85EF8BF01D5006E11C04D8B083EFB2
:101700008BF085EF8BF05EEF8BF0184A192A0AC533
:1017100005F50BC506F518C507F519C508F5000E42
:10172000096E89EC96F00AC505F50BC506F5000EA5
:10173000086E000E076E1AC509F589EC96F00CC507
:1017400012F50DC513F50EC514F50FC515F5050EEB
:10175000AFEF8BF0D8901532143213321232E82EDC
:10176000AAEF8BF012C50CF513C50DF514C50EF5D7
:1017700015C50FF5164A172A1050165C1750800A27
:10178000126E1150800A1258D8A0C9EF8BF0CBEF1F
:101790008BF031EF8BF0120006C508F507C509F58F
:1017A000E4EF8BF0610020F4D9F4610024F4DAF462
:1017B000DF5066EC95F0610020F4D9F4610024F468
:1017C000DAF4DF6E084A092A610020F4D9F46100D6
:1017D00024F4DAF4DF50D8A4F0EF8BF0F2EF8BF0C2
:1017E000D2EF8BF0030E0B6EE80E0A6E610018F458
:1017F000D9F461001CF4DAF4DF500C6E440E0C18BE
:10180000D8A405EF8CF007EF8CF00BEF8CF0030EF3
:101810000B6EF20E0A6E4C0E0C18D8A412EF8CF060
:1018200014EF8CF018EF8CF0040E0B6E240E0A6E81
:10183000460E0C18D8A41FEF8CF021EF8CF025EF8A
:101840008CF0040E0B6E7E0E0A6E3F0E0C18D8A4A0
:101850002CEF8CF02EEF8CF032EF8CF0070E0B6E2D
:10186000D00E0A6E580E0C18D8A439EF8CF03BEF4E
:101870008CF03FEF8CF0070E0B6E300E0A6E420EAE
:101880000C18D8A446EF8CF048EF8CF04CEF8CF09D
:10189000070E0B6E3A0E0A6E5A0E0C18D8A453EFB0
:1018A0008CF055EF8CF059EF8CF0070E0B6EE40EB8
:1018B0000A6E520E0C18D8A460EF8CF062EF8CF018
:1018C00066EF8CF0070E0B6E440E0A6E0AC506F525
:1018D0000BC507F51200000E0D6E000E096E000E0E
:1018E0000A6E000E0B6E000E0C6EEAEF8CF005C552
:1018F00001F506C502F50DC503F5046A92EC96F0F4
:101900000F6E0F0E0D6487EF8CF089EF8CF08BEF6C
:101910008CF0FBEF8CF0300E0F6091EF8CF093EFBA
:101920008CF095EF8CF0FBEF8CF0390E0F649BEF91
:101930008CF09DEF8CF0A7EF8CF0410E0F60A3EFC1
:101940008CF0A5EF8CF0A7EF8CF0FBEF8CF0460E3F
:101950000F64ADEF8CF0AFEF8CF0B9EF8CF0610E4F
:101960000F60B5EF8CF0B7EF8CF0B9EF8CF0FBEFB8
:101970008CF0660E0F64BFEF8CF0C1EF8CF0C3EFFC
:101980008CF0FBEF8CF0040ED89009360A360B363B
:101990000C36E82EC4EF8CF00F50D00F0E6E090EEF
:1019A0000E64D5EF8CF0D7EF8CF0D9EF8CF0070EEA
:1019B0000E5E0F0E0E64DFEF8CF0E1EF8CF0E3EFC4
:1019C0008CF0200E0E5E0E500926000E0A220B220D
:1019D0000C220D2A05C501F506C502F50DC503F556
:1019E000046A92EC96F00009D8A4F9EF8CF0FBEFB2
:1019F0008CF077EF8CF009C505F50AC506F50BC527
:101A000007F50CC508F512009A0EF66E200EF76E5B
:101A1000010EF86E02EE00F210EEA6F00900F5C419
:101A2000EEF4E550E150FAE1EC0EF66E1C0EF76EA6
:101A3000010EF86E02EE00F110EECEF00900F5C4D2
:101A4000EEF4E550E150FAE10C0EF66E1B0EF76E67
:101A5000010EF86E02EE00F010EEFAF00900F5C487
:101A6000EEF4E550E150FAE1400EF66E210EF76E0D
:101A7000010EF86E01EE00F310EEA0F00900F5C4BF
:101A8000EEF4E550E150FAE1340EF66E2D0EF76EED
:101A9000010EF86E01EEF1F210EE0EF00900F5C441
:101AA000EEF4E550E150FAE1600EF66E250EF76EA9
:101AB000010EF86E01EE60F110EE64F00900F5C45D
:101AC000EEF4E550E150FAE101EEA0F3400EEE6ACB
:101AD000E806FDE101EEC8F2290EEE6AE806FDE136
:101AE00001EEC4F1310EEE6AE806FDE101EE4CF1C3
:101AF000100EEE6AE806FDE10401080E5D6F000EAF
:101B00005E6F000E5F6F0001BFEF89F020522E2E36
:101B10002E2E2E2E2E2E2E2E2E2E2E2E2E2E2E2EE5
:101B20002E2E2E2E2E2E2E2E2E2E2E2E2E2E2E2ED5
:101B30002E2E2E2E2E2E2E2E2E2E2E524553455428
:101B400020544152474554204350550D0A00205A15
:101B50002E2E2E2E2E2E2E2E2E2E2E2E2E2E2E2EA5
:101B60002E2E2E2E2E2E2E2E2E2E2E2E2E2E2E2E95
:101B70002E2E2E2E2E2E2E2E2E2E2E2E2E45584929
:101B800054204D4F4E49544F520D0A0020462053C9
:101B9000544152545F414444522868657829204595
:101BA0004E445F414444522868657829204441549A
:101BB0004128686578292E2E2E2E2E4D454D4F52E8
:101BC000592046494C4C0D0A002044205B414444B6
:101BD0005245535328686578295D2E2E2E2E2E2EC1
:101BE0002E2E2E2E2E2E2E2E2E2E2E2E2E2E2E2E15
:101BF0002E2E2E2E2E2E2E2E4D454D4F5259204438
:101C0000554D500D0A0005C510F506C511F5000E1D
:101C10000F6E000E0E6E000E0D6E000E0C6E66EF57
:101C20008EF0610040F4D9F4610044F4DAF4DF503E
:101C3000D8A41DEF8EF01FEF8EF021EF8EF071EF24
:101C40008EF0610040F4D9F4610044F4DAF4210E1E
:101C5000DF602DEF8EF02FEF8EF046EF8EF00C044C
:101C60000D10D8A436EF8EF038EF8EF064EF8EF0C2
:101C7000000E0D6E000E0C6E610040F4D9F4610090
:101C800044F4DAF4000EDF6E64EF8EF00C500D10A9
:101C9000D8A44DEF8EF04FEF8EF064EF8EF0000E73
:101CA0000D6E010E0C6ED8900E34D96E0F34DA6EB4
:101CB0000750D9260850DA22610040F4DEF46100B2
:101CC00044F4DDF40E4A0F2A104A112A09500E5C22
:101CD0000A500F58D8A06FEF8EF071EF8EF011EF11
:101CE0008EF00EC505F50FC506F5120020582E2EF4
:101CF0002E2E2E2E2E2E2E2E2E2E2E2E2E2E2E2E04
:101D00002E2E2E2E2E2E2E2E2E2E2E2E2E2E2E2EF3
:101D10002E2E2E2E2E2E2E2E2E2E2E52454C524153
:101D200053452048414C5420544152474554204388
:101D300050550D0A00204C2E2E2E2E2E2E2E2E2EDD
:101D40002E2E2E2E2E2E2E2E2E2E2E2E2E2E2E2EB3
:101D50002E2E2E2E2E2E2E2E2E2E2E2E2E2E2E2EA3
:101D60002E2E2E2E4C4F4144205320464F524D4193
:101D70005420444154410D0A0020422E2E2E2E2E76
:101D80002E2E2E2E2E2E2E2E2E2E2E2E2E2E2E2E73
:101D90002E2E2E2E2E2E2E2E2E2E2E2E2E2E2E2E63
:101DA0002E2E2E2E2E2E2E2E48414C542054415293
:101DB000474554204350550D0A00000E116E0BC5C7
:101DC00005F50CC506F554EC93F00009D8B4EBEF1B
:101DD0008EF0EDEF8EF03CEF8FF00BC50DF50CC5DE
:101DE0000EF50D3A0E3AF00E0E160D500F0B0E12A8
:101DF000F00E0D16E30E0D24016E050E0E20026E80
:101E0000D8900B34D96E0C34DA6E500ED926050EEC
:101E1000DA2261007CF30FF5010EDE2661007CF30F
:101E200010F5000EDD220FC503F510C504F592EC88
:101E300096F0116ED8900B34D96E0C34DA6E500EC9
:101E4000D926050EDA22010EDB5009E1100EDE5C08
:101E5000D8A02DEF8FF02FEF8FF03CEF8FF0D890C0
:101E60000B34D96E0C34DA6E500ED926050EDA22F8
:101E7000000EDE6E000EDD6E115012000BC505F572
:101E80000CC506F5D1EC91F00009D8B44AEF8FF0FB
:101E90004CEF8FF09CEF8FF00BC50EF50CC50FF5D6
:101EA0000E3A0F3AF00E0F160E500F0B0F12F00EE7
:101EB0000E16D30E0E24056E050E0F20066ED8905A
:101EC0000B34D96E0C34DA6E4E0ED926050EDA229A
:101ED00061007CF310F5010EDE2661007CF311F544
:101EE000000EDD2210C507F511C508F50DC509F571
:101EF00089EC96F0D8900B34D96E0C34DA6E4E0E15
:101F0000D926050EDA22010EDB5009E1100EDE5C47
:101F1000D8A08DEF8FF08FEF8FF09CEF8FF0D890DF
:101F20000B34D96E0C34DA6E4E0ED926050EDA2239
:101F3000000EDE6E000EDD6E1200000E066E010E4B
:101F4000056E000E076E070E086E7AEC95F0000E17
:101F5000066E010E056E670E076E070E086E7AECB0
:101F600095F0000E066E010E056EBD0E076E080E92
:101F7000086E7AEC95F0000E066E010E056E490EA5
:101F8000076E090E086E7AEC95F0000E066E010ED3
:101F9000056E800E076E080E086E7AEC95F0000E46
:101FA000066E010E056E000E076E080E086E7AECC6
:101FB00095F0000E066E010E056E8D0E076E090E71
:101FC000086E7AEC95F0000E066E010E056E000E9E
:101FD000076E090E086E7AEC95F0000E066E010E83
:101FE000056E420E076E080E086E7AEC95F0120030
:101FF000050EC26E000EC16E000EBE6E000EBF6EEC
:10200000000EC06E000ECA6EA30EC66EC768C8680A
:10201000C968000E0401186F000E106F000E086FE3
:10202000000E206F000E006F1969000E216F096904
:10203000230E016F1169000E0201896F000E886F77
:10204000000E876F000E866F000E0401226F000ED7
:10205000026F000E0A6F000E126F000E1A6F0369F6
:102060000B6913691B69070E236F04690C691469F6
:102070001C690F0E246F1F0E0201686F060E056F9C
:102080001E0E676F3F0E046F050E656F260E076FFD
:10209000010E626F070E766F1200537461727469DD
:1020A0006E672036383039207065726970686572E5
:1020B000616C7320656D756C61746F72205B504943
:1020C0004331384634375134335D20566572736975
:1020D0006F6E20302E324120323032322F30372F87
:1020E0003039202863293230323220636F6D6F6EB1
:1020F000656B6F0D0A0D0A002041444452202020D8
:102100007C202B30202B31202B32202B33202B34E2
:10211000202B35202B36202B37202B38202B392015
:102120002B41202B42202B43202B44202B45202BBE
:10213000467C20415343494920434F44450D0A0002
:1021400036383039205065726970686572616C206C
:10215000656D756C61746F72205665722E302E320B
:1021600041202863293230323220636F6D6F6E65F3
:102170006B6F0D0A00436865636B73756D20657244
:10218000726F72202D41424F52542D0D0A00532080
:102190005265636F726420666F726D617420726540
:1021A0006164203E0D0A004D6F6E69746F7220638A
:1021B0006F6D6D616E642068656C700D0A0020485B
:1021C000454144204D455353414745203D3E200065
:1021D000544152474554204558454355540D0A0033
:1021E000B7A0F5EF90F0F7EF90F0F0EF90F0000E61
:1021F0005B6E0201D8A7FFEF90F001EF91F010EFB6
:1022000091F05B8202D810EF91F00500FA6E0501A3
:10221000FB51FD6EFC51FE6EFD51FF6EFA50120037
:102220000201D8A316EF91F018EF91F027EF91F08B
:102230005B8402D827EF91F00500FA6E0501F85192
:10224000FD6EF951FE6EFA51FF6EFA5012005B50AE
:10225000D8B42DEF91F02FEF91F03DEF91F002D82F
:102260003DEF91F00500FA6E0501F551FD6EF65156
:10227000FE6EF751FF6EFA5012000201C7511200B4
:10228000000E066E000E056ED8900534D96E063429
:10229000DA6EC60ED926050EDA22000EDE6E000EAC
:1022A000DD6ED8900534D96E0634DA6E500ED9261C
:1022B000050EDA22000EDE6E000EDD6ED8900534BB
:1022C000D96E0634DA6E4E0ED926050EDA22000ECD
:1022D000DE6E000EDD6ED8900534D96E0634DA6EEF
:1022E0004C0ED926050EDA22000EDE6E000EDD6ED3
:1022F000054A062A06BE86EF91F0065009E1020E55
:10230000055CD8A086EF91F088EF91F044EF91F052
:10231000000E0501C56F000EC46F1200000E066EA0
:10232000000E056E54EC93F00009D8B49AEF91F0CA
:102330009CEF91F0ACEF91F059B0A1EF91F0A3EFC9
:1023400091F0ACEF91F0000E0C6E000E0B6EDDEC18
:102350008EF00501CE6F5980000E066E000E056EE0
:10236000D1EC91F00009D8B4B8EF91F0BAEF91F048
:10237000D0EF91F00501CD515818D8B4C2EF91F0CB
:10238000C4EF91F0D0EF91F058C5CDF5000E0C6E72
:10239000000E0B6ECFC50DF53EEC8FF059965982AD
:1023A0001200D8900534D96E0634DA6E4E0ED92656
:1023B000050EDA22610078F307F5610074F308F581
:1023C000010E0724096E000E08200A6E0A5009E16A
:1023D000100E095CD8A0EFEF91F0F1EF91F0F5EF5E
:1023E00091F0000E0A6E000E096ED8900534D96E79
:1023F0000634DA6E4C0ED926050EDA220950DE18A4
:1024000007E10A50DE18D8A408EF92F00AEF92F024
:102410000DEF92F0000E0EEF92F0010E1200000E82
:102420000601CD6F000ECC6F000E0501C96F000EC6
:10243000C86FCA69CB69000E0601C86F000EC96F6C
:10244000000ECA6F000ECB6F000EF06F000EEF6F24
:10245000000E066E010E056EF80E076E060E086E73
:102460007AEC95F0000E066E010E056EA60E076E54
:10247000050E086E7AEC95F0000E066E010E056EE4
:10248000000E076E0A0E086E7AEC95F01200D890D6
:102490000534D96E0634DA6EC60ED926050EDA2258
:1024A000000EDE6E000EDD6ED8900534D96E063457
:1024B000DA6E500ED926050EDA22000EDE6E000E00
:1024C000DD6ED8900534D96E0634DA6E4E0ED926FC
:1024D000050EDA22000EDE6E000EDD6ED890053499
:1024E000D96E0634DA6E4C0ED926050EDA22000EAD
:1024F000DE6E000EDD6E1200000E0201CB6F000ECC
:10250000CD6F000ECF6FB00ED16F800ED26F000E68
:10251000D36F820ED46F060ED56F000ED66F000EED
:10252000D76F000ED86F000ED96FB00E056E2D0E4E
:10253000066E010E076EA8EC96F0AE0E056E2D0E1F
:10254000066E010E076EA1EC96F0B20E056E2D0E12
:10255000066E010E076EAFEC96F0000E5B6E120079
:102560005441524745542052455345540D0A0020CA
:10257000427974652066696C6C65640D0A0054418B
:10258000524745542048414C540D0A006E6F742048
:1025900066696C6C65640D0A00202D41424F5254EF
:1025A000212D200D0A002020202020202020200D79
:1025B0000A00202D41424F52542D0D0A0020307840
:1025C000000D0A00D68A000ED6BE010E056ED69EFC
:1025D000550E0401596FAA0E596F5991000E5F6F85
:1025E000000E5E6F080E5D6F550E596FAA0E596F83
:1025F000598105B0FEEF92F001EF93F0D68E02EF15
:1026000093F0D69E030171836C83698B6883628B20
:022610001200B6
:10261400C868D150800A06E1CF50180A05E0CF50AF
:10262400190A07E02FEF93F0610040F3D0F52FEF84
:1026340093F0610064F5E8F4FD0B08096100A0F370
:1026440059F5610040F3CFF5610060F5E8F4E8283E
:102654006100A0F358F52FEF93F0BD921100E2EC66
:1026640092F0A1EC95F0F8EC8FF010EC96F04FECB2
:1026740094F0BFEC94F08EEC95F0E4EC95F087ECDC
:1026840094F0F3EC95F0D5EC95F0A3EC94F0F3EC26
:1026940094F033EC94F0D9EC94F06BEC94F07CEC83
:1026A40092F01200D8900534D96E0634DA6EC60E54
:1026B400D926050EDA22D8900534E16E0634E26E8E
:1026C400500EE126050EE222DE50E61807E1DE5048
:1026D400E618D8A470EF93F072EF93F075EF93F0CF
:1026E400000E76EF93F0010E1200610014F4E9F489
:1026F400610018F4EAF4EF5004E0054A062A77EF83
:1027040093F061001CF4E9F4610020F4EAF4EF5062
:10271400610014F4E9F4610018F4EAF4EF6E06E0E1
:10272400074A082A054A062A83EF93F0120006AEE8
:10273400A6EF93F00528FF0E0658D8A0A4EF93F057
:10274400A6EF93F0B8EF93F006BEB4EF93F0065003
:1027540007E1020E055CD8B0B2EF93F0B4EF93F04A
:10276400B8EF93F005C5C4F506C5C5F512000FC54D
:1027740054F510C555F509C505F50AC506F54E0EFF
:10278400076E070E086E7AEC95F0610050F5D9F4E7
:10279400610054F5DAF4000EDF6E000E0501F46FEB
:0E27A400000EF36F000E0A6E000E096E12009A
:1027B400D150800A06E1CF50180A05E0CF50190A1B
:1027C40007E0F6EF93F0610064F5C0F4F6EF93F0E0
:1027D400610038F7C0F4610064F5E8F4FE0B6100B1
:1027E400A0F359F5F6EF93F0C86AB59A1100000EFC
:1027F400086E000E076E05C501F506C502F5075003
:10280400036E0850046E074A082A92EC96F00009F9
:10281400D8A40FEF94F011EF94F0FDEF93F007C5F7
:1028240005F508C506F51200100E065CD8B01DEFBC
:1028340094F01FEF94F02FEF94F0000E016E100E41
:10284400026E05C503F506C504F592EC96F0076E15
:102854000750056E066A32EF94F0000E066E0568A6
:102864001200070E0001D56F0C0ED76F010ED86F42
:10287400040ED96F060EDA6F070EDB6F020EDC6FE3
:10288400040EDD6F600EDE6F000EDF6F000ED46F7E
:10289400920ED66FBD92AD821200040E0001D56F68
:1028A4000C0ED76F010ED86F040ED96F060EDA6FB7
:1028B400070EDB6F020EDC6F040EDD6FA00EDE6F01
:1028C400000EDF6F000ED46F920ED66FB892A882FE
:1028D4001200020E0001D56F0C0ED76F010ED86FD7
:1028E400040ED96F060EDA6F070EDB6F020EDC6F73
:1028F400080EDD6F600EDE6F000EDF6F000ED46F0A
:10290400920ED66FB59AA58A1200010E0001D56FFA
:102914000C0ED76F010ED86F040ED96F060EDA6F46
:10292400070EDB6F020EDC6F080EDD6FA00EDE6F8C
:10293400000EDF6F000ED46F920ED66FB492A48295
:102944001200000E0001D56F0C0ED76F010ED86F68
:10295400040ED96F060EDA6F070EDB6F020EDC6F02
:10296400080EDD6F500EDE6F000EDF6F000ED46FA9
:10297400920ED66FAE9A9E8A1200060E0001D56F93
:10298400800ED76F330ED86F340ED96F370EDA6FCF
:10299400160EDB6F800EDC6F000EDD6F000EDE6F37
:1029A4002A0EDF6F000ED46F840ED66F1200050E50
:1029B4000001D56F0A0ED76F360ED86F160ED96F79
:1029C400390EDA6F360EDB6F020EDC6F000EDD6F30
:1029D400200EDE6F000EDF6F000ED46F820ED66FF6
:1029E4001200030E0001D56F800ED76F350ED86F1D
:1029F4003A0ED96F140EDA6F180EDB6F800EDC6F8F
:102A0400000EDD6F000EDE6F1A0EDF6F000ED46F46
:102A1400840ED66F1200010E056E000E046E7FEC5C
:102A240096F00009D8B419EF95F01BEF95F021EF5B
:102A340095F0F0EC90F0036E0350046E056A04C543
:102A440001F505C502F51200100E0B5CD8B02DEF90
:102A540095F02FEF95F03BEF95F0000E056E100EFC
:102A6400066E0AC507F50BC508F50CC509F589EC12
:102A740096F01200000E066EB7A243EF95F045EFF4
:102A840095F04FEF95F00201D1AB4BEF95F04DEF80
:102A940095F04FEF95F0010E066E06501200000EF1
:102AA400016EB7A258EF95F05AEF95F064EF95F0E8
:102AB4000201D1AB60EF95F062EF95F064EF95F011
:102AC400010E016E01501200056E7B0E05606DEF64
:102AD40095F06FEF95F078EF95F0600E056475EF63
:102AE40095F077EF95F078EF95F0059A0550120080
:102AF40005C502F506C503F561001CF4D9F46100AF
:102B040020F4DAF4DF5007E0046E1EEC96F0074A76
:102B1400082A7EEF95F01200000E0401466F010EA4
:102B2400476F000E426F000E416F000E406F010EA2
:102B3400456FB30E446F330E436F468F1200000E81
:102B44000001606F000E616F000E636F000E646F12
:102B5400000E656F000E666F000E676F000E686FE3
:102B640012000501CBBFBFEF95F0CB5108E1CA05B8
:102B7400D8A0BFEF95F0C1EF95F0C4EF95F0CA0768
:102B8400D8A0CB071200000E586E000E0501CD6FC1
:102B9400000ED06FD0C5CCF5020E596E000ECF6F6B
:102BA400000ECE6F1200020E03013E6F120E3D6F37
:102BB400150E3F6F7F0E3B6F000E3A6FBD96A00E51
:102BC4003C6F1200020E0301326F120E316F180EA9
:102BD400336F350E2F6F000E2E6FB996800E306F47
:102BE4001200020E0301266F080E256F000E276FD8
:102BF400070E236F000E226FB196800E246F120011
:102C0400000EB1B6010E056E0550D8B40CEF96F067
:102C14000EEF96F00FEF96F0B1961200600E0001E1
:102C2400AD6F000EAF6F000EB36F080EB16F000EE4
:102C3400B06F000EAC6F120051EC95F00009D8B4DF
:102C440026EF96F028EF96F01EEF96F0045050EC25
:102C540096F01200066EB7A232EF96F034EF96F0BB
:102C64002DEF96F0610018F4C9F21200C29009C564
:102C740005F50AC506F57E0E076E050E086E7AEC9C
:102C840095F01200C28009C505F50AC506F5900E37
:102C9400076E070E086E7AEC95F01200016EB7A26B
:102CA40056EF96F058EF96F051EF96F0610004F469
:102CB400C9F21200C868CF50E96ED1500F0B100949
:0A2CC400EA6ED050EF6EB8921100D6
:102CD000B492CF50E96ED1500F0B1009EA6EC86A5A
:062CE000EF50C06E110070
:102CE800AE9ACF50F66ED150F76EF86A0800C86AEF
:102CF800F550C06E1100B7B084EF96F087EF96F0EC
:102D0800010E88EF96F0000E120007500524D96EC8
:102D180008500620DA6E0950DF6E120003500124B5
:102D2800D96E04500220DA6EDF50120020207C0099
:102D38007C20000D0A003E00200005C5F8F506C5F8
:102D4800F9F507C5FAF5120005C5FBF506C5FCF54A
:102D580007C5FDF5120005C5F5F506C5F6F507C565
:102D6800F7F51200C4C505F5C5C506F51200066ECF
:102D78000650C0EC96F01200056E610014F422F3C0
:102D88001200C8EC96F012000301249F1200CEEC4A
:102D980096F012000301248F12008EEC91F01200BD
:0E2DA800C5EC95F0120012001200120011008E
:020000040020DA
:10000000FF0FFF0FFF0FFF0FFF0FFF0FFF0FFF0F80
:10001000FF0FFF0FFF0FFF0FFF0FFF0FFF0FFF0F70
:10002000FF0FFF0FFF0FFF0FFF0FFF0FFF0FFF0F60
:10003000FF0FFF0FFF0FFF0FFF0FFF0FFF0FFF0F50
:020000040030CA
:0A0000008CDFFFFF9FFFFFFFFFFFF3
:00000001FF
