:0400000000EF80F09D
:10000800994999499949994999495449994999491D
:1000180099499949994999499949994999499949C8
:1000280099499949994999499949994999499949B8
:1000380099499949994999499949994999499949A8
:100048009949994999499949994999499949994998
:100058009949994999499949994999499949994988
:1000680099494E49994999499949994999499949C3
:10007800994999499949994942008448994999491E
:100088009949994999499949994999499949994958
:1000980099499949994999494200994999499949E8
:1000A8009949484999499949994999499949994989
:1000B8009949994999499949994999499949994928
:1000C8009949994999499949994999499949994918
:1000D8009949994999499949994999499949994908
:1000E8004200994999499949994999499949994998
:1000F800994903489949994999499949994999497F
:02010800FF00F6
:10BFFE000000000000000000000000000000000033
:10C00E000000000000000000000000000000000022
:10C01E000000000000000000000000000000000012
:10C02E000000000000000000000000000000000002
:10C03E0000000000000000000000000000000000F2
:10C04E0000000000000000000000000000000000E2
:10C05E0000000000000000000000000000000000D2
:10C06E0000000000000000000000000000000000C2
:10C07E0000000000000000000000000000000000B2
:10C08E0000000000000000000000000000000000A2
:10C09E000000000000000000000000000000000092
:10C0AE000000000000000000000000000000000082
:10C0BE000000000000000000000000000000000072
:10C0CE000000000000000000000000000000000062
:10C0DE000000000000000000000000000000000052
:10C0EE000000000000000000000000000000000042
:10C0FE000000000000000000000000000000000032
:10C10E000000000000000000000000000000000021
:10C11E000000000000000000000000000000000011
:10C12E000000000000000000000000000000000001
:10C13E0000000000000000000000000000000000F1
:10C14E0000000000000000000000000000000000E1
:10C15E0000000000000000000000000000000000D1
:10C16E0000000000000000000000000000000000C1
:10C17E0000000000000000000000000000000000B1
:10C18E0000000000000000000000000000000000A1
:10C19E000000000000000000000000000000000091
:10C1AE000000000000000000000000000000000081
:10C1BE000000000000000000000000000000000071
:10C1CE000000000000000000000000000000000061
:10C1DE000000000000000000000000000000000051
:10C1EE000000000000000000000000000000000041
:10C1FE00000010CE00F14F8EC5418D484F974A97E3
:10C20E004BBDC4E024418D2827E88D7027E4AE8411
:10C21E009F4A9E423001300130018D14270E9E42FE
:10C22E00AE849C4A270630019F4620DE8D6120DCBD
:10C23E009F72BDC4233001A6848D039E4A3981228C
:10C24E00265430017EC3A39F74974AD74B9E4A262D
:10C25E00768E01089C5027B49F42A684E601BDC38A
:10C26E00489E4230013001BDC385BDC53820E59ED4
:10C27E0042300130016D8426FA3001398E01089F5B
:10C28E00429C502710A601904BA684924A24048DFE
:10C29E00DE20EC86FF39BDC3AE340434029E72BD7F
:10C2AE00C4363502C124260535047EC55BC03F2742
:10C2BE00135C350426013FA784E701DB529953979F
:10C2CE0052D753397EC3468DB3271EAE849C4A2661
:10C2DE00188D9C10DE429C50270CA684340230012F
:10C2EE003261326120F010DF509E74C6036D8427D8
:10C2FE003D5C30016D8426F94FDB519950973CD748
:10C30E003DD0599258242E9E5010DE3C10DF5030F6
:10C31E0001301FE68434049C4226F610DE4A10EFEC
:10C32E008410DE74327F30013504E70126F810CE1A
:10C33E0000F17EC20A7EC20035048E00829F6C8E92
:10C34E00C49A9F6EAE849F708E0070BDC4A43402DA
:10C35E009E6C96698B30A78430019F6C9E6E350261
:10C36E00300130016D0126DA8E008163053001E661
:10C37E0084C13027F803864F9787E6843001D18732
:10C38E002705BDC55B20F3BDC54624618D04C11BC9
:10C39E0027A37EC54B8DE1A684813B27637EC538DE
:10C3AE008D4C3402A68427028129350227528D0432
:10C3BE009E6420EE34023404A684340230018D2EA5
:10C3CE00976AD76B9F648E006A35023504812A26E0
:10C3DE007235029768D769C610D7664F5F04680634
:10C3EE006924028D64680169840A6626F039BDC429
:10C3FE00E2240FC13F260C9F76BDC5178DA29E76F7
:10C40E00300139C12426068D894F300139C12826C5
:10C41E00043001208B8D11A684E6019E70398D802B
:10C42E005849DB5199502010E68430013404C13A4A
:10C43E0027EC4FC43FCB02589F70976CD76D9E6C04
:10C44E00350439812B26073502EB01A98439812D5C
:10C45E0026073502E001A28439812F260D35028D83
:10C46E0035974ED74F9668D66939803D260D3502E1
:10C47E008DE226035D2702C6FF200E4A35022707EE
:10C48E008DD2594FC401398DF75320F7271003E889
:10C49E000064000A00010F660C666801698424F8C6
:10C4AE00668466010F680F698DAA24068D9B1CFE9B
:10C4BE0020021A01096909680A6627136484660155
:10C4CE0020E6E684C13A2A04C1302C031A01391C35
:10C4DE00FE398D358DEC25F94F5FEB848900C03028
:10C4EE0082009766D767300134048DD6350425DF78
:10C4FE0058495849DB679966584920DEC1402707DD
:10C50E0030018C004A26098D218E0002301F27F73C
:10C51E00BDC54BE7890087C15F27F1C10D2BF12601
:10C52E00DB6F8900878E00882004C60D8D02C60A37
:10C53E007EC55B0D0A4F4B00F6801857398DF924D6
:10C54E00FCF68019C47FC17F27F38D013934048D29
:10C55E00E75724FB3504F78019393B000000000033
:10C56E0000000000000000000000000000000000BD
:10C57E0000000000000000000000000000000000AD
:10C58E00000000000000000000000000000000009D
:10C59E00000000000000000000000000000000008D
:10C5AE00000000000000000000000000000000007D
:10C5BE00000000000000000000000000000000006D
:10C5CE00000000000000000000000000000000005D
:10C5DE00000000000000000000000000000000004D
:10C5EE00000000000000000000000000000000003D
:10C5FE0000007EC63C544F594F5348494B49205476
:10C60E00494E59204241534943003638303920456E
:10C61E00444954494F4E004C494E453A00594F55E6
:10C62E0020545950453A20003B3B3B3B3B3B4F1F70
:10C63E008B10CE1F00CC3039DD007ED5193402B6FA
:10C64E008018850227F935828D0E2705B68019844C
:10C65E007F398DE9B7801939B6801885013934567E
:10C66E000F110F12CE00106FC4108300002C050C9A
:10C67E0011170430DD161F01CC000A1703C49F16D4
:10C68E00CB30E7C20C129E1626EE0D112706C62DD4
:10C69E00E7C20C129612C620A1632C05E7C24C20ED
:10C6AE00F730C417008235D634305F0F110F0610E5
:10C6BE008E000717006C810D272F81082722817F9E
:10C6CE00271E812D270F812B270BC10624E517046A
:10C6DE004D270520DE5D26DBA7A55C17003220D393
:10C6EE005D27D05A17004E20CA1700326FA5E6A458
:10C6FE00C12B2706C12D2604001131211703DD267B
:10C70E00090D11270317039C35B0C604D70635B0A3
:10C71E00810D1026FF3C17FF39860A16FF34860D51
:10C72E0020EE17FF2327FB393410A680270517FFAD
:10C73E00DF20F735903402860817FF168D0786081E
:10C74E0017FF0F35823402862017FFC43582344618
:10C75E005FCE009417FFCB810D271F8D248D2927C7
:10C76E00111703A126EEC19F24EAA7C55C17FFA0EF
:10C77E0020E25D27DF5A8DBD20DA17FFA18D10351F
:10C78E00C68109260286203981082702817F395DFC
:10C79E0027095AA6C517037727F55C6FC539474F8A
:10C7AE00544F00474F5355420052455455524E0078
:10C7BE00464F5200544F0053544550004E45585466
:10C7CE000049460052454D0053544F5000494E50BB
:10C7DE005554005052494E54004C4554002C003BC9
:10C7EE00002D002B002A002F00280029003E3D00BE
:10C7FE003C3E0023003E003D003C3D003C0040001E
:10C80E00524E44004142530053495A45004C49533D
:10C81E00540052554E004E455700C7CF80C7AC81CD
:10C82E00C7B182C7B783C7BE84C7C285C7C586C70F
:10C83E00CA87C7E188C7DB89C7D28AC7E78BC7D645
:10C84E008CC7ED8DC7EF8EC7F18FC7F390C7F591EB
:10C85E00C7FE92C80593C80194C80795C80A96C723
:10C86E00FB97C80398C7F799C7F99AC7EB9BC80CF3
:10C87E009CC80E9DC8129EC8169FC81BA0C820A19A
:10C88E00C824A2FFFFCEC828AEC48CFFFF271E34DB
:10C89E0020A6A01702676D84270AA18027F33520F2
:10C8AE00334320E43510A642313F1A04391CFB39BC
:10C8BE0034108EC8D6200534108EC8EBA1842706FE
:10C8CE006D8026F81CFB3590838C9B8E8F909199F2
:10C8DE009A979498939295969C9D9E9F008E8F907A
:10C8EE0091999A979498939295969B8DA60034144D
:10C8FE008E0134D6120C12A785359434168E01345F
:10C90E00D6123ACB02D7123506ED8435903470101C
:10C91E008E00940F121701996DA41027008317FF34
:10C92E00642747A6A41701F61027007E17017B1077
:10C93E002700961701F3102600C4D612C19E1024AC
:10C94E0000B8C10425128E01343AA61E81A4260811
:10C95E00A61C81A4102700A686A417FF91A6A017D7
:10C96E00019B804117FF8716FFABD612C19F102483
:10C97E00008817FF79818A1026FF9A17013330A499
:10C98E0017013C1F89DB12C19E1024006D17FF5E3C
:10C99E008E0134D6123AA6A02707A7800C1216FFD6
:10C9AE00F586A617FF48961235F017012F2653DD90
:10C9BE00168E01349612819D1024003E86A317FF19
:10C9CE002DDC1617FF3516FF4C971131211700F786
:10C9DE001F984C9B1281A0242186A517FF101F982B
:10C9EE0017FF0B5A2B07A6A017FF0320F6A6A4913C
:10C9FE00111026FF20312116FF1BC6082006C6285F
:10CA0E002002C604D7064F35F034048EC828808025
:10CA1E001F893A3A3AAE8435849601D60056465668
:10CA2E00C4809800D801DD00D60054D801D70196F5
:10CA3E0001980097003934101F018DDD1E108D02F4
:10CA4E0035903416C61034044F5F34066866696537
:10CA5E00594910A3632506A3631A0120021CFE691F
:10CA6E006169E46A6226E535103265393456E6634B
:10CA7E003DED64EC613DEB65E765A661E6633DABBC
:10CA8E00653266391CD0594934061CD059491CD020
:10CA9E005949E3E432623934061F108DE71F013520
:10CAAE00063086394353C30001398122270281277C
:10CABE0039A6A02707170057260220F5313F3986E1
:10CACE00FF4C6D8626FB3934025FA6A5270C170096
:10CADE00342607A1E427035C20F0358234108E0043
:10CAEE00003410A6A0170036260D803017FFA8AC14
:10CAFE00E42508AFE420EC313F1A043596170029DF
:10CB0E00260284DF398120251D817E2219200C8189
:10CB1E0020270A8109250F810D220B1A0439813035
:10CB2E002504813923F51CFB398141250C815B25B8
:10CB3E000B81612504817B25031CFB391A04396D99
:10CB4E00842703EC0139CC7FFF3934068E02D46D75
:10CB5E0084270C8DEA10A3E42405E6843A20F035F0
:10CB6E008634048E02D4E68427033A20F9358434C1
:10CB7E00108DEE1F108302D417FF29C317FF3590B7
:10CB8E0034768E013417FFB717FFBF338434061780
:10CB9E00FFAD10A3E426138DD6EB848900F001348B
:10CBAE0024068200102300638D2835068E0134A6DC
:10CBBE00848104271B17FFB7E0842406820010230C
:10CBCE0000498D258E0134E684A680A7C05A26F929
:10CBDE0035F63456A6C430C6A6842709E680E7C0CB
:10CBEE004A26F920F36FC435D6344017FF731F1051
:10CBFE00A3E4C3000134063184F601343A35064FFE
:10CC0E00A784A6A2A7825A26F935C0C60AD7064F10
:10CC1E0035F63456A6A481A627148180250C81A34F
:10CC2E00250E272081A525282735862A970635D655
:10CC3E0017FDD617003DA6A48D5CA6A0818A26D42A
:10CC4E008D3B35D6EC218E000017FA1231232009C8
:10CC5E003121A6A08B4117FAB7A6A48D4220B5317B
:10CC6E0021E6A48D23340217FAA68D11350217FA88
:10CC7E009F20A1A680270517FA9620F739E6A0A6D1
:10CC8E00A017FA8C5A26F839A6A5812227055A260E
:10CC9E00F7861D8B053917FC17270317FAA73917C7
:10CCAE00FC15270317FA9E394F4B004465766973BE
:10CCBE00696F6E206279207A65726F004F766572A9
:10CCCE00666C6F7700537562736372697074206F50
:10CCDE007574206F662072616E67650049636F64BC
:10CCEE0065206275666665722066756C6C004C69AF
:10CCFE0073742066756C6C00474F53554220746FE9
:10CD0E006F206D616E79206E657374656400524597
:10CD1E005455524E20737461636B20756E64657248
:10CD2E00666C6F7700464F5220746F6F206D616E88
:10CD3E0079206E6573746564004E4558542077698A
:10CD4E0074686F757420464F52004E4558542077C4
:10CD5E006974686F757420636F756E746572004EBA
:10CD6E00455854206D69736D6174636820464F5247
:10CD7E0000464F5220776974686F75742076617221
:10CD8E006961626C6500464F5220776974686F75F1
:10CD9E007420544F004C455420776974686F757435
:10CDAE00207661726961626C65004946207769740C
:10CDBE00686F757420636F6E646974696F6E005569
:10CDCE006E646566696E6564206C696E65206E754D
:10CDDE006D62657200272827206F72202729272071
:10CDEE00657870656374656400273D2720657870EB
:10CDFE00656374656400496C6C6567616C20636F74
:10CE0E006D6D616E640053796E7461782065727217
:10CE1E006F7200496E7465726E616C206572726F0E
:10CE2E00720041626F7274206279205B4553435DDC
:10CE3E0000CCB6CCB9CCCACCD3CCEACCFCCD06CD8A
:10CE4E001CCD33CD47CD58CD6DCD7FCD94CD94CD6A
:10CE5E00B8CDCDCDE3CDF7CE04CE14CE21CE303429
:10CE6E00360D06273E17F8B6108C02D42529108CE5
:10CE7E001AD424239E026D84271D8EC62517F8A86A
:10CE8E009E0217FCBA9E0017F7D417F8B8109E0230
:10CE9E00312317FD7D200C8EC62B17F88B8E009438
:10CEAE0017F88517F878D6068ECE3FAE8517F87828
:10CEBE0017F86B0F0635B6A6A48199261A312117DD
:10CECE0001770D06260D3406A6A4819A350626078F
:10CEDE00312139CC000039C622D706398E001A58B6
:10CEEE003A3958593406CC01D4E3E432621F013981
:10CEFE003410E6A4C1A5220FC08E250B8ECF1B5871
:10CF0E003AAE8427026E84C628D7063590CF58CF06
:10CF1E0051000000000000000000000000000000B2
:10CF2E00000000CF6D00000000CF72CF88CF98CFE9
:10CF3E00AE000000000000CF4BCF6200003121ECAC
:10CF4E00A135903121BDCEFE3590312117FFA117AD
:10CF5E00FB5235903121E6A0BDCEEAEC8435901718
:10CF6E00FF553590312117FF4E0D06269E1083007A
:10CF7E00802444BDCEF0EC843590312117FF380D5E
:10CF8E00061026FF8617FAAE3590312117FF280DB1
:10CF9E00061026FF7610830000240317FB0635903B
:10CFAE003121A6A48199260A3121A6A4819A260CA4
:10CFBE00312117FBBA3590C60616FF4DC62216FF55
:10CFCE0048345017FF2A0D0626383406A6A4819041
:10CFDE00270881912712350635D0312117FF11AE62
:10CFEE00E417FA88EDE420E4312117FF03108300E3
:10CFFE00002709AEE417FA4AAFE420D0C602D706DE
:10D00E003262CCFFFF35D0345017FFB50D0626F235
:10D01E003406A6A4818F2708818E270F350635D0BA
:10D02E00312117FF9CE3E4EDE420E7312117FF9156
:10D03E0017FA71E3E4EDE420D9345017FFC90D0659
:10D04E0026C03406E6A4C0922513C106220F8ED048
:10D05E006F583A312117FFAF10A3E46E94350635A1
:10D06E00D0D08FD08BD08FD097D093D09FD09BCC59
:10D07E000000EDE420CECC0001EDE420C727F72020
:10D08E00EE26F320EA2EEF20E62CEB20E22DE72011
:10D09E00DE2FE320DA34560F13A6A48D5027168107
:10D0AE00A527178194272117FF8F0D06260A9E1399
:10D0BE0017F5AB201E17F66635D63121E6A0A6A0D1
:10D0CE0017F64D5A26F8200B312117FF6C0D062648
:10D0DE00E7DD13A6A4819B270A8D1227BCC628D78D
:10D0EE000635D63121A6A48D0426AE35D6818D27E0
:10D0FE000281A639345634026FE4A6A481A5260314
:10D10E0017009581A42706819C271C205231216D82
:10D11E00E426028D5217F5900D0626361F03E6A063
:10D12E00BDCEEAEF842021312117FD8B0D0626227C
:10D13E001083008024256DE426028D3EBDCEF017AF
:10D14E00F5660D06260CED84A6A4819B27088D9D01
:10D15E00260D350235D6312116FF9DC6062002C694
:10D16E0028D706350235D63402A6A48B4117F5A072
:10D17E00863A17F59B35026062393406864017F5FC
:10D18E008F862817F58A350617F4D3862917F5806A
:10D19E00863A17F57B6062393121E6A0A6A017F515
:10D1AE006F5A26F860E4A6A4393416E6A0BDCEEA7E
:10D1BE00A6A48193260D312117FE7E0D062602EDC3
:10D1CE00843596C624D7063596341617FCE90D0617
:10D1DE00261A108300802416BDCEF0A6A4819326B5
:10D1EE0011312117FE530D062602ED843596C60623
:10D1FE002002C624D7063596A6A481A42709819CB1
:10D20E00270BC61CD70639312117FF9D3931218DC9
:10D21E00B8393470E6A4C1A61027005CC18D220F68
:10D22E00C0801025005B8ED266583AAE842620E66A
:10D23E00A4C19C2712C1A42713C1A12748C1A227AC
:10D24E0044C1A02740203ABED2822003BED284AD74
:10D25E00840D06263216FFBCD299D2B3D2C5D30D99
:10D26E00D32D00000000D3BBD40DD413D2AAD419F1
:10D27E00D41FD430D433D4399E02E6843A1F1035ED
:10D28E00F0C6142002C626D70635F0312117FDA9A7
:10D29E000D0626071083000027023939A6A081A6A5
:10D2AE0026FA313F3931218D3A0D0626049F02317F
:10D2BE000339C620D7063931218D280D0626F29660
:10D2CE000481142219CE004E33C68B059704DC025E
:10D2DE00EDC110AFC19605A7C09F02310339C60C30
:10D2EE00D7063917FD530D06260F17F85D340617AE
:10D2FE00F84D10A3E43506260139C620D706399617
:10D30E000481052515CE004E33C680059704A6C2AE
:10D31E00970510AEC3AEC39F0239C60ED70639317C
:10D32E0021A6A081A41026006DA6A417FE7B0D06D3
:10D33E00102600613402A6A481851026005C3121DE
:10D34E0017FCF63406A6A481862607312117FCE9C0
:10D35E002003CC00013406108300002B0D17F74478
:10D36E00C37FFF10A3622D38200B17F737C3800140
:10D37E0010A3622C2B96058124222DCE006733C676
:10D38E008B099705DC02EDC110AFC13516AFC1EDAB
:10D39E00C13502A7C039C61820103502C61A200A98
:10D3AE0035163502C6042002C610D706393121962D
:10D3BE0005810910250043E6A0C1A410260037CE32
:10D3CE00006733C6E65FE1A02628BDCEEAEC5DE33A
:10D3DE0084ED841F01EC5D2B06AC5B2E0E2004AC9D
:10D3EE005B2D0810AE59EC57DD0239960580099772
:10D3FE000539C6162006C6142002C612D7063931C4
:10D40E002117FC9139312117FCEA39312117FDE83A
:10D41E00399E02E68427033A20F99F0235061F1033
:10D42E0035F0312139312117FD9F39312117FD7921
:10D43E003934760F040F058E02D49F026D84270FA8
:10D44E00310317FDCD0D062606DD021F0120ED3539
:10D45E00F63476A6A481A3260930A417F6E11F039D
:10D46E002003CE00008E02D46D84270A11A301235F
:10D47E0005E6843A20F26D84272117F6C234108E09
:10D48E00000017F1D917F2BD3510310317F7830DD0
:10D49E0006260817F288E6843A20DB35F63450CE9D
:10D4AE0000008E001A861AEF814A26FB8E01D48662
:10D4BE0080EF814A26FB97049705B702D48E02D4DB
:10D4CE009F020F0635D03430108E0134A6A481A0F1
:10D4DE00252F271381A2252222273121A6A481A63A
:10D4EE00262417FFB835B03121A6A481A62706A69B
:10D4FE002381A6261117FF5935B0312117FF32357A
:10D50E00B017FD0E35B0C628D7063917FF8F8EC659
:10D51E000317F21417F2078EC61817F20B17F1FE47
:10D52E0017F93C863E17F1E817F22317F3DF0D06C5
:10D53E00261AF60134C1A3260CB7013417F6410D95
:10D54E0006260920DEC1A6270317FF7A17F9102039
:10D55E00D2000000000000000000000000000000EB
:10D56E0000000000000000000000000000000000AD
:10D57E00000000000000000000000000000000009D
:10D58E00000000000000000000000000000000008D
:10D59E00000000000000000000000000000000007D
:10D5AE00000000000000000000000000000000006D
:10D5BE00000000000000000000000000000000005D
:10D5CE00000000000000000000000000000000004D
:10D5DE00000000000000000000000000000000003D
:10D5EE00000000000000000000000000000000002D
:10D5FE0000007ED6067ED6080F6E10CE01EE966E19
:10D60E008155260A9E6FA684811226026E848E0292
:10D61E00186F83300126FA8E02176F809F19A602AB
:10D62E0043A702A10226063001630120F19F719FDC
:10D63E00279F233089FF389F211F148ED68BCE0053
:10D64E0076C612BDD76BCE00A7C604BDD76B863982
:10D65E0097F0BDDA778E00B59F8DCEE18BC60AEFBF
:10D66E00815A26FB8ED6C0BDE69F8ED6839F6F86CF
:10D67E0055976E200412BDDA917ED9DF3B1040FF24
:10D68E0000E18B0C8426020C83B600007ED77C7ED4
:10D69E00D77B7ED68A7EE18B804FC7525932D7DA3E
:10D6AE00D8E71DD87AD78B000000000000000000DC
:10D6BE000000003638303920455854454E44454414
:10D6CE002042415349430D28432920313938322015
:10D6DE004259204D4943524F534F46540D0D00347D
:10D6EE00169E76DC789F6AD76C976D35960F738E83
:10D6FE0000F4C601BDF542810826075A27EF301FF8
:10D70E0020348115260A5A27E48608BDF55620F6E0
:10D71E0081031A012705810D260D4F3401BDE65FE9
:10D72E006F848E00F33581812025C9817B24C5C18C
:10D73E00FA24C1A7805CBDF55620B92705BDE47E4D
:10D74E009F7A6E9F007A7EDB6096732603BDF54747
:10D75E000F73975310260C6A97567EE3DCA680A7AC
:10D76E00C05A26F939399D8227FB7EDFBD3B813AAF
:10D77E00240A812026020E7C803080D039E97DE992
:10D78E00F1E99600ADEC22EC77E491E3C2E23EE4DF
:10D79E0057E3E1E3CDED27ECEFECF8EE69EE9BED10
:10D7AE00BDF023EDF7F4F5E3ECE409E410D757E20E
:10D7BE002FF02BF0EBF0BB79E6C879E6BF7BE7CF15
:10D7CE007BE8947FEE0050E01646E015464FD247B8
:10D7DE00CF5245CDA7454C53C549C6444154C150BF
:10D7EE0052494ED44FCE494E5055D4454EC44E4557
:10D7FE0058D44449CD524541C45255CE5245535446
:10D80E004F52C55245545552CE53544FD0504F4B94
:10D81E00C5434F4ED44C4953D4434C4541D24E454B
:10D82E00D7455845C354524FCE54524F46C6444521
:10D83E00CC4445C64C494EC552454E55CD4544493E
:10D84E00D4544142A854CF5355C2544845CE4E4F9E
:10D85E00D4535445D04F46C6ABADAAAFDE414EC4ED
:10D86E004FD2BEBDBC46CE5553494EC75347CE4987
:10D87E004ED44142D35553D2524EC45349CE504545
:10D88E0045CB4C45CE535452A45641CC4153C34381
:10D89E004852A44154CE434FD35441CE4558D0465E
:10D8AE0049D84C4FC7504FD35351D2484558A44C2A
:10D8BE00454654A45249474854A44D4944A4494EA0
:10D8CE004B4559A44D45CD5641525054D2494E5315
:10D8DE0054D2535452494E47A4DAA5DBF0DC4DDC4A
:10D8EE004DDC4DDC7EDC4AE627DCACDD59DB77DE39
:10D8FE003EE08FDD93DBE5DB59DC2ADB7BE498DB56
:10D90E00A0E49FDBB1DA75D749F01EF01FF29AF151
:10D91E00DEF539F324EEAA4E46534E52474F444697
:10D92E00434F564F4D554C425344442F3049445467
:10D93E004D4F534C535354434E4644414F444E491E
:10D94E004F464D4E4F4945445355464E4520455240
:10D95E00524F520020494E20000D4F4B0D000D42EC
:10D96E005245414B003064C6129F0FA6848080261C
:10D97E0015AE019F119E3B27099C1127099E0F3A58
:10D98E0020E59E119F3B9E0F4D398D17DE41334191
:10D99E009E433001A68236029C4726F8DF45394F5A
:10D9AE0058D31FC3003A250810DF1710931725EE22
:10D9BE00C60CBDDA91BDE663BDE6B28ED9253A8DB1
:10D9CE00318D2F8ED95ABDE69F96684C2703BDEA3E
:10D9DE00C8BDE6638ED967BDE69FBDD6FBCEFFFF01
:10D9EE00DF6825F69F839D7C27F0250BBDE5547ED1
:10D9FE00DB2EA6807EE6B4BDDCD19E2B9FF1BDE56D
:10DA0E0054D7038D4C2512DC47A384D31BDD1BEEAC
:10DA1E00843702A7809C1B26F896F3271CDC1BDD9F
:10DA2E0043DB038900DD41BDD998CE00EF3702A755
:10DA3E00809C4526F89E419F1B8D368D02209B9E15
:10DA4E0019EC8427213304A6C026FCEF84AE842073
:10DA5E00F0DC2B9E19EE84270910A3022306AE8458
:10DA6E0020F31A019F473926FB9E196F806F809F06
:10DA7E001B9E19BDDC259E279F23BDDB599E1B9F38
:10DA8E001D9F1F8E00C99F0BAEE410DE216FE20FAB
:10DA9E002D0F2E0F086E8486809708BDDCF3BDD93E
:10DAAE0073326226049E0F3285C609BDD9ADBDDC28
:10DABE0052DC683416C6A0BDDFB5BDDE89BDDE877B
:10DACE00D654CA7FD450D750108EDADD7EDF308E1A
:10DADE00E7C8BDE9179D8281A426059D7CBDDE8722
:10DAEE00BDE970BDDF2CDC3B3406868034021CAFF2
:10DAFE008D609E839F2FA6802707813A27227EDF87
:10DB0E00BDA68197002772EC80DD689F83968C27D7
:10DB1E000F865BBDF5569668BDEACF865DBDF556A0
:10DB2E009D7C8D0220C827294D102A01B881FF2720
:10DB3E000F819E22C9BED6AE481F893A9D7C6E9437
:10DB4E009D7C8197102714ED7EDFBD9E19301F9F9F
:10DB5E003339BDF547270A8103271281132703970F
:10DB6E007339BDF54727FB20EE9D8220021A012650
:10DB7E00319E839F2F060032629E688CFFFF270620
:10DB8E009F299E2F9F2D8ED96B0D00102AFE427E4F
:10DB9E00D9D4260EC6209E2D1027FE169F839E29B1
:10DBAE009F6839272CBDE12734069E279D82270CBE
:10DBBE00BDDFB3BDE47E301F9C7122181F10A3E1A0
:10DBCE0025121F0383003A250B931B2507DF219F88
:10DBDE00277EDA847ED9BE9D821027FE94BDDA841C
:10DBEE0020191F899D7CC1A02716C1A12645C603F9
:10DBFE00BDD9ADDE839E6886A134528D037EDAFCDC
:10DC0E009D82BDDCD18D403001DC2B109368220249
:10DC1E009E19BDDA632517301F9F833926FD86FFB7
:10DC2E00973BBDD9731F148121270BC6048CC60EDA
:10DC3E007ED9C07EDFBD35529F68DF838D068C8D09
:10DC4E00069F8339C63A865FD7015F9E831F98D69B
:10DC5E00019701A68427EC3404A1E027E630018168
:10DC6E002227EA4C26023001818626E70C0420E3A7
:10DC7E00BDDE879D8281812705C6A2BDDFB5964F89
:10DC8E0026130F048DB64D27BA9D7C818426F50A86
:10DC9E00042AF19D7C9D821025FF657EDB34BDE458
:10DCAE004CC681BDDFB5340281A1270481A0268335
:10DCBE000A53260535047EDBF29D7C8D06812C27CA
:10DCCE00EF35849E749F2B246180309701DC2B816D
:10DCDE001822DB58495849D32B5849DB018900DDFE
:10DCEE002B9D7C20E2BDE0989F3BC6AEBDDFB59676
:10DCFE00063402BDDE9C350246BDDE8E10270C2892
:10DD0E009E52DC2110A30224119C1B250DE684BD1E
:10DD1E00E24E9E4DBDE3848E00569F4DBDE3B6DEB2
:10DD2E004D9E3B3726A78410AF02393F5245444FD4
:10DD3E000D007ED9C0960927079E319F687EDFBDF4
:10DD4E008EDD38BDE69F9E2F9F8339C6169E6830A6
:10DD5E000127DF8D01398122260BBDDF8AC63BBD2F
:10DD6E00DFB5BDE6A28E00F36F848D06C62CE78468
:10DD7E002016BDE6B2BDE6AFBDD6FB240532647EED
:10DD8E00DB83C62E399E33864F97099F35BDE098AB
:10DD9E009F3B9E839F2B9E35A6842609960926516E
:10DDAE00BDE6B28DCD9F839D7CD60627239E83979D
:10DDBE00018122270E301F4F9701BDD6ED863A976F
:10DDCE0001862C9702BDE25FBDDF8FBDDD0E200602
:10DDDE00BDEA15BDE9369D822706812C1026FF521D
:10DDEE009E839F359E2B9F839D822721BDDFB3206F
:10DDFE009C9F83BDDC5230014D260AC606EE81275C
:10DE0E0041EC81DD31A684818626E620989E35D6AA
:10DE1E00091026FD3AA68427068EDE2D7EE69F3952
:10DE2E003F45585452412049474E4F5245440D00EC
:10DE3E0026049E742003BDE0989F3BBDD973270432
:10DE4E00C60020471F143003BDE917A66897549EDD
:10DE5E003BBDE6C5BDE9363069BDE999E068270CE2
:10DE6E00AE6E9F68AEE8109F837EDAFC32E8129D9C
:10DE7E0082812C26F49D7C8DBD8D131CFE7D1A0196
:10DE8E000D0625032A998C2B96C6187ED9C08D6E49
:10DE9E004F8C34043402C601BDD9ADBDDF690F3FCE
:10DEAE009D8280AD25138103240F810149983F91F6
:10DEBE003F2564973F9D7C20E9D63F2633102400F2
:10DECE006B8B07246799061027047789FF34024865
:10DEDE00ABE08ED7C530863502A18424558D9C3497
:10DEEE00028D299E3D3502261D4D1027006A204BBE
:10DEFE000806598D098EDF11D73F0F0620D99E8354
:10DF0E007EDC2564E035A184243120D3EC01340677
:10DF1E008D08D63F16FF7B7EDFBDD654A6843520F6
:10DF2E003404D64F9E50DE5234546EA49E74A6E036
:10DF3E00272681642703BDDE899F3D3504815A273C
:10DF4E0019817D271554D70A3552975C9F5DDF5F87
:10DF5E003504D761D854D762D64F39BDF1B30F0609
:10DF6E009D7C24037EEA15BDE0E32450812E27F428
:10DF7E0081A7274081A627E38122260A9E83BDE240
:10DF8E00599E649F833981A3260D865ABDDEA0BD9E
:10DF9E00E12E43537EE2354C272E8D06BDDE9CC608
:10DFAE00298CC6288CC62CE19F008326020E7CC6C7
:10DFBE00027ED9C0867DBDDEA07EEBECBDE0989FD3
:10DFCE0052960626957EE9179D7C1F89589D7CC129
:10DFDE003823037EDFBD3404C12A251EC130241C24
:10DFEE008DC0A6E4BDDE9C8DBCBDDE8C3502DE523E
:10DFFE003442BDE44C350234068E8D9E3504BED6B9
:10E00E00B33AAD947EDE89864F9703BDE12EDD01D6
:10E01E00BDE94DBDE12E0D0326069401D402200468
:10E02E009A01DA027EE235BDDE8E261096618A7F77
:10E03E00945D975D8E005CBDE99920360F060A3F10
:10E04E00BDE398D7569F589E5FBDE39A965634040B
:10E05E00A0E0270786012403D656409754DE585C6D
:10E06E005A2604D654200BA680A1C027F3C6FF243F
:10E07E000150CB0159D40A2702C6FF7EE97FBDDFCE
:10E08E00B3C6018D089D8226F5395F9D82D705970F
:10E09E00379D828D401025FF165FD7069D7C250487
:10E0AE008D33250A1F899D7C25FC8D2924F881241A
:10E0BE0026060306CB809D7CD7389A088028102729
:10E0CE0000750F089E1BDC379C1D271210A381279D
:10E0DE003E300520F381412504805B80A5398E00FA
:10E0EE0074EEE41183DFCD2728DC1FDD43C3000768
:10E0FE00DD419E1D9F47BDD9989E419F1F9E459F06
:10E10E001D9E47DC37ED814F5FED84ED02A7049F26
:10E11E00393990800000009D7CBDDE8796542B5DC2
:10E12E00BDDE89964F819025088EE120BDE99926A6
:10E13E004CBDE9CBDC5239DC053406125F9E373418
:10E14E00148DD435349F37DE5234605C9D82812C21
:10E15E0027EBD703BDDFAD3506DD059E1D9C1F27C2
:10E16E0021DC3710A3842706EC02308B20EFC61279
:10E17E009605260BD603E1042759C6108CC6087ED9
:10E18E00D9C0CC0005DD64DC37ED84D603E704BDD1
:10E19E00D9AD9F41C60B4F0D0527053506C30001AE
:10E1AE00ED058D5DDD6430020A0326E89F0FD30F67
:10E1BE001025F7FC1F01BDD9B1830035DD1F4F308F
:10E1CE001FA7059C0F26F89E41961F9341ED0296C0
:10E1DE0005262DE604D7034F5FDD643506DD5210AC
:10E1EE00A305243ADE6427048D17D35230020A03A6
:10E1FE0026E7EDE358495849E3E1308B30059F3966
:10E20E003986109745EC05DD174F5F5849250F08E5
:10E21E006509642404D31725050A4526EE397EE1E7
:10E22E00881F40931F214F0F06DD50C6907EE98553
:10E23E00BDDE89CE01F0BDEADF32628E01EF200B2A
:10E24E009F4D8D5C9F58D75639301F862297019768
:10E25E000230019F629F58C6FF5CA680270C910179
:10E26E002704910226F381222702301F9F64D7567E
:10E27E00DE62118301F022078DC69E62BDE3869E8B
:10E28E000B8C00F12605C61E7ED9C09656A700DC63
:10E29E0058ED0286FF97069F0D9F5230059F0B3952
:10E2AE000F074F3406DC23A3E0109321250ADD234C
:10E2BE009E2330019F253584C61A030727CA8D0475
:10E2CE00350420DE9E279F234F5FDD4B9E219F4707
:10E2DE008E00C99C0B27048D3220F89E1B9C1D2797
:10E2EE00048D2220F89F419E419C1F2735EC02D3BE
:10E2FE0041DD41A6012AF0E60458CB053A9C4127A0
:10E30E00E88D0820F8A60130022A14E6842710ECC6
:10E31E0002109323220910934723049F4BDD4730AD
:10E32E0005399E4B27FB4FE6845AD347DD439E2388
:10E33E009F41BDD99A9E4BDC45ED029E45301F7E16
:10E34E00E2D4DC523406BDDF69BDDE8C35109F622F
:10E35E00E6849E52EB842405C61C7ED9C0BDE24ED7
:10E36E009E62E6848D109E4D8D228D0C9E628D1CBC
:10E37E00BDE28D7EDEAEAE02DE255C2004A680A759
:10E38E00C05A26F9DF2539BDDE8C9E52E6848D18E3
:10E39E002613AE07301F9C2326083404D323DD2317
:10E3AE003504300139AE02399C0D26079F0B301B08
:10E3BE009F0D4F398D037EE2348DCC0F065D39BD36
:10E3CE00E44FC601BDE2AE9653BDE252A78432625F
:10E3DE007EE28D8D0220DF8DE0275EE684398D484A
:10E3EE004FE1842303E6844F3406BDE2509E4D8DEB
:10E3FE009B35043A3504BDE38620D58D2BA0844091
:10E40E0020DFC6FFD7539D8281292705BDDFB38D3F
:10E41E002D8D1527245F4AA18424CD1F89E08450B9
:10E42E00D15323C4D65320C0BDDFADEEE4AE659FFD
:10E43E004DA664E66432671F357EE18B9D7CBDDEA2
:10E44E0087BDE12A4D26F20E82BDE3C7102702DEFC
:10E45E00DE839F833AA68434526F849D82BDEA1573
:10E46E003552A784DF83398D079F2BBDDFB320CEB6
:10E47E00BDDE8796542BC2964F819022BCBDE9CB50
:10E48E009E52398DEEE6847EE2348DDB9E2BE78440
:10E49E00393401BDDCD1BDDA5F9F66350127129D8F
:10E4AE0082271381A726099D7C2706BDDCD127066E
:10E4BE0039CEFFFFDF2B32629E66BDE663BDD754B9
:10E4CE00EC8426037ED9DF9F66EC0210932B22F498
:10E4DE00BDEACFBDE6AF9E668D10AE9F0066CE0044
:10E4EE00F4A6C027D5BDE6B420F73004108E00F494
:10E4FE00A68027512B15813A260DE684C18427F07C
:10E50E00C18327EC8C86218D3020E5CED6A181FFEC
:10E51E002604A6803345847F334A6DC427E7A0C402
:10E52E002AF6ABC4EE414A2B066DC02AFC20F7A694
:10E53E00C48D066DC02AF820B7108C01ED24068418
:10E54E007FA7A06FA4399E83CE00F30F430F44A67E
:10E55E008027210D43270FBDE0E3241881302504C9
:10E56E00813923100F438120270A974281222738B1
:10E57E000D442719A7C02706813A27CF20D16FC097
:10E58E006FC01F308300F18E00F29F8339813F26CA
:10E59E0004868720DF81272613CC3A83EDC10F42F4
:10E5AE00A68027D0914227CCA7C020F48130250425
:10E5BE00813C25C0301F34500F41CED6A10F4233BF
:10E5CE004AA6C4273110AE41AEE4E6A0E08027FA99
:10E5DE00C180263832623540DA4296412606C18421
:10E5EE002606863AEDC12094E7C0C18626020C4469
:10E5FE00C18227AA2086CED6A6034126C03550A6B4
:10E60E0080A7C0BDE0E325EC034320E80C424A2777
:10E61E00AE313FE6A02AFC20AF27368D0139273ECA
:10E62E00819F2753812C2737813B2760BDDE9C9627
:10E63E000634022606BDEADCBDE2578D573504BD11
:10E64E00D6ED5D26089D82812C27148D549D822641
:10E65E00CF860D2051BDD6ED27F7966C26F339BD2A
:10E66E00D6ED270AD66CD16B25068DE5201ED66C0D
:10E67E00D06A24FC502010BDE44A81291026F92FBF
:10E68E00BDD6EDD06C23058D185A26FB9D7C7EE6FB
:10E69E002CBDE259BDE3985C5A27C3A6808D072096
:10E6AE00F786208C863F7EF5568EEBC32009BDE89B
:10E6BE0032035403622003BDE8325D102702808EC0
:10E6CE00005C1F895D276CD04F2769250A974F96EE
:10E6DE006197548E004F50C1F82F594F6401BDE71A
:10E6EE00BDD6622A0B630163026303630443890090
:10E6FE0097639653996097539652995F9752965196
:10E70E00995E97519650995D97505D2A4425028DDA
:10E71E005D5F9650262E965197509652975196536E
:10E72E009752966397530F63CB08C1282DE44F97EA
:10E73E004F9754398D6D5F20A85C086309530952B9
:10E74E00095109502AF3964F3404A0E0974F23DE67
:10E75E008C2508086386009763200C0C4F2728062B
:10E76E005006510652065324048D0D27EE390354DC
:10E77E0003500351035203539E5230019F522606FB
:10E78E009E5030019F5039C60A7ED9C08E0012A607
:10E79E00049763A603A704A602A703A601A70296E1
:10E7AE005BA701CB082FE89663C008270C670166AC
:10E7BE000266036604465C26F43981000000008D73
:10E7CE006327608D7886009713971497159716D642
:10E7DE00538D22D663D78BD6528D1AD663D78AD64F
:10E7EE00518D12D663D789D6508D0CD663D788BD7E
:10E7FE00E90E7EE71F279543961356272624169675
:10E80E00169B6097169615995F97159614995E97B5
:10E81E00149613995D46971306140615061606638D
:10E82E004F20D539EC0197618A80DD5DD661D854D1
:10E83E00D762EC03DD5FA684975CD64F394D271661
:10E84E009B4F464928108B80974F270C9662975402
:10E85E003996544320023262102AFED27EE795BDCD
:10E86E00E962270D8B0225F40F62BDE6D00C4F270F
:10E87E00EB398420000000BDE9628EE8805FD7622C
:10E88E00BDE9178C8D9E2773004F8DB10C4F27CC91
:10E89E008E0013C604D703C6019650915D261396BB
:10E8AE0051915E260D9652915F26079653916026E2
:10E8BE0001431FA859240AE7800A032B34272EC6CA
:10E8CE00011F8A250E0860095F095E095D25E32B8D
:10E8DE00C820DF966090539760965F9252975F962E
:10E8EE005E9251975E965D9250975D20D8C64020FD
:10E8FE00D0565656D7638D087EE71FC6147ED9C0F4
:10E90E009E139F509E159F52393402EC0197548AE4
:10E91E0080DD500F63E684AE039F52D74F35828E53
:10E92E00004520068E00408C9E3B964FA784965441
:10E93E008A7F9450A7019651A702DE52EF033996B3
:10E94E006197549E5C9F4F0F63965E975196549EAF
:10E95E005F9F5239DC4FDD5C9E519F5E9E539F60E0
:10E96E004D39D64F2708D65459C6FF250150398D3B
:10E97E00F1D7500F51C68896508080D74FDC74DD8A
:10E98E0052976397547EE71B0F5439E68427D3E6DC
:10E99E0001D8542BD1D64FE184261DE601CA7FD46F
:10E9AE0050E1012613D651E102260DD652E103267F
:10E9BE0007D653E00426013956D85420ABD64F273C
:10E9CE003DC0A096542A05035BBDE77E8E004FC165
:10E9DE00F82E06BDE7B10F5B390F5B965449065012
:10E9EE007EE7BDD64FC1A0241D8DD2D7639654D7D6
:10E9FE0054808086A0974F965397017EE71BD75081
:10EA0E00D751D752D753399E749F549F4F9F519FC2
:10EA1E00529F479F452564BDF152812D2604035513
:10EA2E002004812B26049D7C2551812E272881458B
:10EA3E0026289D7C256481A7270E812D270A81A675
:10EA4E002708812B2704200603489D7C254C0D4862
:10EA5E00270800472004034626CC96479045974743
:10EA6E0027122A09BDE8850C4726F92007BDE86D57
:10EA7E000A4726F996552A8E7EEBECD645D046D718
:10EA8E00453402BDE86D3504C0308D022098BDE9D5
:10EA9E0032BDE97F8E00407EE6C5D6475858DB472B
:10EAAE005880303404ABE09747209F9B3EBC1FFD3F
:10EABE009E6E6B27FD9E6E6B28008ED9618D0CDCD1
:10EACE0068DD50C69043BDE9898D037EE69FCE0179
:10EADE00F18620D6542A02862DA7C0DF649754866D
:10EAEE0030D64F102700C64FC18022088EEAC3BD14
:10EAFE00E7CD86F797458EEABEBDE9A32E0F8EEAC7
:10EB0E00B9BDE9A32E0EBDE86D0A4520F1BDE8851D
:10EB1E000C4520E2BDE6B7BDE9CBC60196458B0A92
:10EB2E002B09810B24054A1F8986024A4A9747D72B
:10EB3E00452E0DDE64862EA7C05D27048630A7C045
:10EB4E008EEBC8C6809653AB0397539652A9029785
:10EB5E00529651A90197519650A98497505C5659D7
:10EB6E0028E32403C00B50CB2F30041F98847FA7BB
:10EB7E00C00A452604862EA7C053C4808CEBEC2613
:10EB8E00C4A6C2813027FA812E2602335F862BD689
:10EB9E0047271C2A03862D50A7428645A741862F5C
:10EBAE004CC00A24FBCB3AED436F452004A7C46F3B
:10EBBE00418E01F1398000000000FA0A1F00009812
:10EBCE009680FFF0BDC0000186A0FFFFD8F00000C8
:10EBDE0003E8FFFFFF9C0000000AFFFFFFFF964FB8
:10EBEE0027020354399F64BDE9328D058D088E00CE
:10EBFE00407EE7CD9F64BDE92D9E64E680D7559F8C
:10EC0E00648DEE9E6430059F64BDE6C58E00450A98
:10EC1E005526EE39BDE9702B1F27158D10BDE93233
:10EC2E008D0E8E00408DCA8EE7C8BDE6C57EE9F119
:10EC3E009EB19F509EB39F52BEEC739F5DBEEC750E
:10EC4E009F5FBDE7D3DC8AC3658BDDB3DD52DC8805
:10EC5E00C9B08905DDB1DD500F548680974F9615EA
:10EC6E0097637EE71F40E64DABBDE9628EECBCD6E6
:10EC7E0061BDE88CBDE9628DB40F62965CD64FBD66
:10EC8E00E6BF8EECC1BDE6BC965434022A09BDE641
:10EC9E00B796542B05030ABDEBEC8EECC1BDE6C551
:10ECAE0035024D2A03BDEBEC8EECC67EEBF38349A9
:10ECBE000FDAA27F000000000584E61A2D1B8628BD
:10ECCE0007FBF88799688901872335DFE186A55D03
:10ECDE00E72883490FDAA2A154468F138F52438936
:10ECEE00CD8EED22BDE6C57EEC77BDE9320F0A8DE5
:10ECFE00F68E004ABDE9388E0040BDE9170F5496D6
:10ED0E000A8D0C0D4F1027FA7E8E004A7EE8923443
:10ED1E00027EECA581490FDAA2965434022A028DA6
:10ED2E0024964F3402818125058EE7C88DDE8EED47
:10ED3E0057BDEBF33502818125068EED22BDE6BC73
:10ED4E0035024D2A037EEBEC390B76B383BDD379B6
:10ED5E001EF4A6F57B83FCB0107C0C1F67CA7CDE0C
:10ED6E0053CBC17D1464704C7DB7EA517A7D63300C
:10ED7E00887E7E9244993A7E4CCC91C77FAAAAAAED
:10ED8E00138100000000037F5E56CB7980139B0B2E
:10ED9E006480763893168238AA3B20803504F3348B
:10EDAE00813504F334808000000080317217F8BD85
:10EDBE00E970102FF3C78EEDA9964F80803402862E
:10EDCE0080974FBDE6C58EEDAEBDE8928EE7C8BD0D
:10EDDE00E6BC8EED94BDEBF38EEDB3BDE6C535040A
:10EDEE00BDEA9C8EEDB87EE7CDBDE9628EEBC3BD6C
:10EDFE00E91727674D26037EE73D8E004ABDE938A9
:10EE0E005F96612A10BDE9F18E004A9661BDE9A3B5
:10EE1E00260343D601BDE94F3404BDEDBD8E004A35
:10EE2E00BDE7CD8D363502461025FDB2398138AAA3
:10EE3E003B29077134583E5674167EB31B772FEE5E
:10EE4E00E3857A1D841C2A7C6359580A7E75FDE77A
:10EE5E00C6803172181081000000008EEE3BBDE7B7
:10EE6E00CDBDE932964F818825037EE85FBDE9F17D
:10EE7E0096018B8127F44A34028E0040BDE6BC8E8B
:10EE8E00EE40BDEC020F623502BDE84B39BDE970B4
:10EE9E002B037EE9F103548DF97EEBECBDF2D832F3
:10EEAE006286019798BDDA5F1025ED82BDE4F81FEA
:10EEBE00208300F5D797DC2BBDEACFBDE6AF8E00E1
:10EECE00F4D69826255FBDEFFEBDF530250B8030BC
:10EEDE003402860A3DEBE020EDC001C901814126D6
:10EEEE0005BDE65F20BB814C260B8D310F98BDE62C
:10EEFE005F20C33262810D260D8D22BDE65F8E002E
:10EF0E00F49F837EDA08814527F181512606BDE6FE
:10EF1E005F7ED9DF8D0220AD812026108CC6F9A62A
:10EF2E00842708BDF55630015A26F4398144264807
:10EF3E006D8427F78D045A26F7390A97311F312130
:10EF4E00A621A7A426F839814927138158270D81B8
:10EF5E0048265C6F841F108300F5D7978DBFBDEFD9
:10EF6E00FE810D278E811B2725810826228C00F419
:10EF7E0027EC8D458DC420E6814326CB6D84270E6C
:10EF8E00BDEFFE250220F5A7808D375A26EE39D625
:10EF9E0097C1F9260220C734106D8026FCE682E761
:10EFAE0001ACE426F83262A7808D170C9720AF8152
:10EFBE000826128D045A26FB398C00F427D0301FF8
:10EFCE0086087EF556814B2705805327013934027A
:10EFDE008D1E3402A68427166D6126068DE430013F
:10EFEE002003BDEF48A684A1E426E95A26E635A003
:10EFFE00BDF542817F24F9815F2602861B810D2794
:10F00E000E811B270A81082706812025E31A013964
:10F01E00864F978C398600D6791D7EE235BDDFB0DE
:10F02E00DC1F3406BDE098BDDFAD35061E109C1FFB
:10F03E0026517EE2359D7CBDDFB0BDE0983410ECEC
:10F04E0002109321230493272312E684BDE2AE34EB
:10F05E0010AE62BDE3843550AF423440BDE4793426
:10F06E00045D271FC6FF81292703BDE4793404BD43
:10F07E00DFADC6AEBDDFB58D2E1F13AE62A684A06A
:10F08E006124037EE18B4CA1E42402A7E4A6611E59
:10F09E0089AE025A3A4D270DA1E42302A6E41F8938
:10F0AE001E31BDD76B3596BDDE9C7EE395BDDFB0C0
:10F0BE00BDE44C3404BDDFB3BDDE9CBDDFAD9606B2
:10F0CE002605BDE44F2003BDE3E53404E661BDE251
:10F0DE005035062705A7805A26FB7EE3DCBDDFB040
:10F0EE00BDDE9CC601340496062610BDE44FE7E44F
:10F0FE002791BDDFB3BDDE9CBDDE8C9E523410BDAC
:10F10E00DFB3BDF0B53414BDDFADAE63BDE39A34ED
:10F11E0004E1662523A661271CE6665A3A3184EE81
:10F12E0062E661A6E4A0664CA161250CA680A1C092
:10F13E00260C5A26F7E666215F32677EE2346C664D
:10F14E00302120D98126265C32620F520F538E0059
:10F15E00529D7C814F2712814827239D82200C814E
:10F16E00381022EE4AC6038D2A9D7C25F20F500FD1
:10F17E00510F060F630F54C6A0D74F7EE71F9D7C1D
:10F18E00250BBDE0E325E6814724E28007C6048D0A
:10F19E000220EB680169841025F5EC5A26F58030C3
:10F1AE00AB01A7013935400F069E839D7C81262732
:10F1BE009981B0275E81FF26089D7C8183102700F0
:10F1CE00AB9F836EC49E68300126D9C6167ED9C009
:10F1DE00AE9F00838CFF83102700748D238DE6BDB8
:10F1EE00DFB0C680D708BDE0988D25BDDFADC6AEB9
:10F1FE00BDDFB59E4BDC83ED84DC39ED027EDC4A4F
:10F20E00C6B0BDDFB5C680D7088A80BDE09D9F4BD6
:10F21E007EDE898DEB3410BDDFA88DF43540C6320D
:10F22E00AE4227A9109E83EEC4DF83A6043402ECFF
:10F23E0084EE023476BDE938BDDE873576ED84EF97
:10F24E00023502A7049D821026ED64109F83399D1E
:10F25E007C8D0934108D2D3540AFC4395F9D7C24D3
:10F26E000680301F899D7C9E8D583A398DEEAE8476
:10F27E003410BDDFA88E004F96062707BDE3989E7B
:10F28E0052960639C6AEBDDFB57EE47E1027EEED92
:10F29E00BDDCD1BDDA5F9F939D82271081A7263BEF
:10F2AE009D7C27048D24200486FF972BDE938CEE05
:10F2BE00C4ECC42706EC42932B23F49E938D15BD0C
:10F2CE00DA7F9E93BDDA4F7ED9DFBDDCD17ED77457
:10F2DE00A6C0A78011931B26F79F1B39BDF1D39DA6
:10F2EE007C8122260BBDDF8AC63BBDDFB5BDE6A203
:10F2FE00327EBDDD863262BDE0989F3BBDDE8C8ED8
:10F30E0000F34FBDE25D7EDD0EBDDCD19E2B399E3E
:10F31E00919F2B7EDA5FBDDA84CC000ADD95DD8FFE
:10F32E005FDD919D8224068DE09F959D82271BBDFA
:10F33E00DFB324068DD39F919D82270EBDDFB324AC
:10F34E00068DC69F8F2749BDD7748DC39F939E95FB
:10F35E008DBF9C93253A8D1CBDF3F8BDDA4D8DAF54
:10F36E009F938D3A8D0F8D36BDF493BDDA84BDDA41
:10F37E004D7ED9DF864F97989E93DC958D150D980F
:10F38E002602ED02AE848D0BD38F250481FA25EE75
:10F39E007EE18B3406EC84350626023262399E19E4
:10F3AE00301F30018DED30033001A68427F49F0FFE
:10F3BE004A270C4A272A4A26EF8603A78020E7EC25
:10F3CE00016A0227014FE6036A0427015FED01DDA2
:10F3DE002BBDDA5F9E0F25E1DC476C80ED8420C6E5
:10F3EE006F84AE01AE029F4720EA9E1920049E83D1
:10F3FE0030018D9F300230019F839D7C4D27EF2A77
:10F40E00F99E8381FF27EF81A227128184270E8127
:10F41E008126E79D7C81A0270481A126DB9D7C258A
:10F42E00049D8220D79E833410BDDCD19E83A6829C
:10F43E00BDF53025F930011F10E061C005272025EC
:10F44E000A3384503085BDF2E220149F479E1B9FE5
:10F45E00435030859F419F1BBDD9989E459F833554
:10F46E00108601A784A702A704D62B2604C6016C1A
:10F47E0002E701D62C2604C6016C04E7039D8281A7
:10F48E002C279A209C9E19301F3001EC02DD68BD9E
:10F49E00F3A130033001A68427EF4A271B800226F2
:10F4AE00F334108EF4F0BDE69FAEE4EC01BDEACF6E
:10F4BE00BDEAC8BDE65F35103410EC01DD52BDF17A
:10F4CE007BBDEADC3540C6053001A68427055AA768
:10F4DE00C020F530C45D27BE31C433C5BDF2E23065
:10F4EE00A420B3554C2000BDE4818E01F0C6043437
:10F4FE00045F860408530952594A26F85D260AA667
:10F50E00E44A27058C01F0270CCB30C1392302CBFE
:10F51E0007E7806F8435045A26D532628E01EF7E5E
:10F52E00E25981302504803A80C63981891027FD41
:10F53E00AB7EDFBD8D0327FC39B68018850127060B
:10F54E00B68019847F394F398D243402810D270BF3
:10F55E00B780190C799679917825100F798D0F86D1
:10F56E000DB780198D08860AB78019350239340215
:10F57E00B68018850227F935023900000000000018
:10F58E00000000000000000000000000000000006D
:10F59E00000000000000000000000000000000005D
:10F5AE00000000000000000000000000000000004D
:10F5BE00000000000000000000000000000000003D
:10F5CE00000000000000000000000000000000002D
:10F5DE00000000000000000000000000000000001D
:10F5EE00000000000000000000000000000000000D
:10F5FE00000010CE1FFE17091F8E0000BF1F10BF88
:10F60E001F27BF1F258653B71F298600976D7F1FA3
:10F61E002BCC0000FD1F2CFD1F2EFD1F30FD1F32B9
:10F62E00FD1F34FD1F38FD1F3AC680FD1F3C10FF25
:10F63E001F36B71F3E8EFDBF1706258EFDDA170645
:10F64E001F1706748E1F001706B51706BD4D27EB44
:10F65E008144273881471027013081531027018FAD
:10F66E00814C102701F88150102702FB8149102789
:10F67E000424814F1027043F815210270473815AAE
:10F68E001027059D8EFDF71705D620AF3001170602
:10F69E006E1706815D2616170665A6844D26E510A3
:10F6AE00BE1F1031A9008010BF1F12203210BF1FC5
:10F6BE001017064BA684812C270D4D26C731A900A5
:10F6CE008010BF1F12201830011706331706461779
:10F6DE00062D5D27AF6D8426AB312110BF1F12FCA6
:10F6EE001F10C4F07F1F241F0134108D23351030DE
:10F6FE00881017083B2610B61F24810225EBBE1F6B
:10F70E0012BF1F1016FF34BF1F1017081816FF2B3D
:10F71E001F1017055534108EFDFF170543351010B9
:10F72E008E1F14C6108D285A26FB8EFE021705302A
:10F73E008E1F14C610A68081202509817F240517EF
:10F74E0007F42005862E1707ED5A26E916055F8663
:10F75E00201707E2B61F244D2617BC1F10270D8653
:10F76E00201707D21707CFA7A03001398601B71F80
:10F77E0024B61F24810126E7A680A7A01704EFBC9C
:10F78E001F1226058602B71F243930011705701780
:10F79E000583A6841026FEEC5D270410BF1F3810CB
:10F7AE00FE1F36B61F2B84012705FC1F3A1F07FCD0
:10F7BE001F383406FC1F343406FC1F323406FC1F7F
:10F7CE00303406B61F3C3402B61F2B84012713B605
:10F7DE001F3E84012707FC1F2E34062005FC1F2E1A
:10F7EE001F06FC1F2C3406B61F3D8A8034023B30A8
:10F7FE000117050B17051E170505A6841026FE8496
:10F80E005D260410BE1F271F2017045E8EFE0217F2
:10F81E00044EA6A4170457862017071A1704998EAC
:10F82E001F001704DAA6842608312110BF1F2720D7
:10F83E00D6812D2608313F10BF1F2720CA812E26C4
:10F84E000710BF1F2716FDF334201704C85D1027BD
:10F85E00FE321F203520E7A010BF1F2720A9300140
:10F86E0017049C1704AF1704966D841026FE151707
:10F87E0006B317049581532779813A270D810D27F9
:10F88E00EE810A27EA17069D20F31703F8B71F41EA
:10F89E0034021703F0B71F3FBB1F41B71F411703B9
:10F8AE00E4B71F40BB1F41B71F411F20F31F3F1F6F
:10F8BE00011703D1B71F2ABB1F41B71F4135045D86
:10F8CE0027171703C03402BB1F41B71F4135027DF6
:10F8DE001F2A2602A7805A26E91703A9BB1F412615
:10F8EE00087D1F2A279F7EF6498EFDDD1703717E48
:10F8FE00F649170630B71F2A17038A3402B71F417D
:10F90E00170382B71F3FBB1F41B71F41170376B7BF
:10F91E001F40BB1F41B71F411F20F31F3F1F013563
:10F92E0004C003271D17035D3402BB1F41B71F41DF
:10F93E00B61F2A813126063502A780200235025ACB
:10F94E0026E3170340BB1F4181FF2612B61F2A81F3
:10F95E003727118138270D813927097EF8938EFDBF
:10F96E00EA1702FC7EF6493001A68417039C8149F2
:10F97E002704815326053001B71F2917038117036A
:10F98E00945D271F10BF1F3F170374A684812C267A
:10F99E0012300117036917037C5D27071703606D8B
:10F9AE008427037EF69231211F20B31F3FBE1F3FD7
:10F9BE00FD1F3F8D21B61F3FBA1F4026F6B61F29E9
:10F9CE00814926098EFE061702967EF6498EFE1492
:10F9DE0017028D7EF649C6107D1F3F260BB61F40BF
:10F9EE003404A1E024021F89B61F403404A0E0B7FE
:10F9FE001F40B61F3F8200B71F3FB61F2981492601
:10FA0E0049863A1705301F98170263F71F413410C5
:10FA1E00A6E4170259A6E0BB1F41B71F41A6E41783
:10FA2E00024CA6E0BB1F41B71F414F170240A680F4
:10FA3E0034021702393502BB1F41B71F415A26EE59
:10FA4E00B61F41401702277EFCBC86531704E7867B
:10FA5E00311704E21F988B03B71F411702103410A1
:10FA6E00A6E4170209A6E0BB1F41B71F41A6E41783
:10FA7E0001FCA6E0BB1F41B71F41A680340217014F
:10FA8E00ED3502BB1F41B71F415A26EEB61F41434B
:10FA9E001701DB7EFCBC30011702641702775D1084
:10FAAE0027FBE11702596D841026FBD8A6A4170177
:10FABE00BD1701FA16FB8430011702431702565D7B
:10FACE001027FBC010BF1F3F170234A680812C10D9
:10FADE0026FBB117022917023C5D1027FBA6170261
:10FAEE001E6D841026FB9DBE1F3F1F20E78416FB54
:10FAFE004A300117020917021181002606170080ED
:10FB0E0016FB38108EFE83A1A4270AE6211027FBD0
:10FB1E0073312620F2A621810F260C10AE22300161
:10FB2E00A6841701E520E081001027FB57E621B6D9
:10FB3E001F2BC580270685011027FB48AE24170111
:10FB4E001F863D1703F0AE22C4073414C1012607E9
:10FB5E00A6841701192005EC8417010E86201703C1
:10FB6E00D51701548E1F001701AB5D27103514C138
:10FB7E000126061F20E78420041F20ED8416FABB01
:10FB8E008EFE501700DAB61F2C1700E28EFE5317AA
:10FB9E0000CEB61F2D1700D6B61F2B840127188E48
:10FBAE00FE571700BBB61F2E1700C38EFE5B170045
:10FBBE00AFB61F2F1700B78EFE5F1700A3FC1F30C6
:10FBCE001700A78EFE63170097FC1F3217009B8E3F
:10FBDE00FE6717008BFC1F3417008F8EFE6B17000D
:10FBEE007FFC1F361700838EFE6F170073FC1F38C5
:10FBFE00170077B61F2B8401270C8EFE7517006039
:10FC0E00FC1F3A1700648EFE79170054B61F3C177E
:10FC1E00005C8EFE7E170048B61F3D170050160082
:10FC2E008D30011700D98100260CB61F3E17003EFD
:10FC3E0017007B16FA051700DC5D1027FA461F2009
:10FC4E00C1041024FA3EF71F3E8E1F008611A780B6
:10FC5E00863DA780E7808639A78017229516F9DBA7
:10FC6E00A6802705BDFF4420F7398D021F98340268
:10FC7E00444444448D023502840F8B30813A250270
:10FC8E008B077EFF444F8D044848484834021702C4
:10FC9E009417007681302513813A250A8141250B70
:10FCAE008147240780078030ABE039350239860D55
:10FCBE00BDFF44860A7EFF448E1F005FBDFF338169
:10FCCE000D2737810A273381082718817F27148152
:10FCDE002025E9818024E5C10F24E15CA780BDFFCA
:10FCEE004420D95D27D65A301F8608170248862031
:10FCFE00170243860817023E20C28DB26F8439A6C2
:10FD0E00808120260220F8301F3981612506817BF3
:10FD1E0024028BE0395F108E0000A6848DEC8130BA
:10FD2E002523813A250A8141251B81472417800707
:10FD3E0080301E0258495849584958491E2031A64C
:10FD4E0030015C20D5398EFE2117FF143502B71F06
:10FD5E003D3506FD1F2CB61F2B84012710B61F3E06
:10FD6E0084012704350620021F60FD1F2E3502B7C1
:10FD7E001F3C3506FD1F303506FD1F323506FD1FB3
:10FD8E00343506830001FD1F3810FF1F36B61F2BBA
:10FD9E00840127051F70FD1F3A17FDE416F89C110C
:10FDAE003C8027058EFE2720038EFE3A17FEB120DB
:10FDBE009B0D0A556E6976657273616C204D6F6E80
:10FDCE0069746F7220363830390D0A005D20004597
:10FDDE0072726F7220696865780D0A004572726FD3
:10FDEE007220737265630D0A004572726F720D0A8E
:10FDFE0000203A00203A20003A3030303030303097
:10FE0E003146460D0A0053393033303030304643D8
:10FE1E000D0A005357490D0A004469766973696FDC
:10FE2E006E206279207A65726F0D0A00496C6C65DE
:10FE3E0067616C20696E737472756374696F6E0D91
:10FE4E000A00413D0020423D0020453D0020463D38
:10FE5E000020583D0020593D0020553D0020533DC7
:10FE6E00000D0A50433D0020563D002044503D00F9
:10FE7E002043433D0041011F2CFF0742011F2DFF70
:10FE8E0009430FFED70000440FFEE9000045811F15
:10FE9E002EFF0D46811F2FFF0F57821F2EFF115869
:10FEAE00021F30FF1359021F32FF1555021F34FF78
:10FEBE001753021F36FF19500FFEFB000056821F0C
:10FECE003AFF1E00000000000000011F3DFF23430B
:10FEDE00011F3DFF2300000000000000021F2CFF49
:10FEEE000B50011F3CFF2000000000000043021FCA
:10FEFE0038FF1B0000000000004100420044004596
:10FF0E00004600570058005900550053005043005A
:10FF1E0056004450004343008603B78018121286E1
:10FF2E0015B7801839B68018840127F9B6801939AB
:10FF3E00B680188401393402B68018840227F93548
:10FF4E0002B7801939000000000000000000000018
:10FF5E000000000000000000000000000000000093
:10FF6E000000000000000000000000000000000083
:10FF7E0000007EF60000000000007EF64900000042
:10FF8E0000007EFF4400000000007EFC6E000000BA
:10FF9E0000007EFF3300000000007EFF3E000000E8
:10FFAE000000000000000000000000000000000043
:10FFBE000000000000000000000000000000000033
:10FFCE000000000000000000000000000000000023
:10FFDE000000000000000000000000000000000013
:10FFEE000000FDAD0000000000000000FD54000008
:02FFFE00F6000B
:020000040001F9
:100000009DEF89F023BE06D023500DE1020E225C45
:10001000D8B009D024C5B2F625C5B3F626C5B4F6C6
:1000200027C5B5F621D0000E0601A06FA00E056E03
:10003000060E066E20EE02F02050D9262150DA225C
:10004000DEC407F5DDC408F59AEC90F0A00E056E4D
:10005000060E066E6CEC8BF005C5B2F606C5B3F65F
:1000600007C5B4F608C5B5F623BE06D0235012E185
:10007000030E225CD8B00ED0FF0E0601B225B66F7B
:10008000000EB321B76F000EB421B86F000EB5217A
:10009000B96F21D0000E0601A06FA00E056E060EEE
:1000A000066E20EE04F02050D9262150DA22DEC45C
:1000B00007F5DDC408F59AEC90F0A00E056E060E6B
:1000C000066E6CEC8BF005C5B6F606C5B7F607C52F
:1000D000B8F608C5B9F61EC505F51FC506F55E0ECE
:1000E000076E0A0E086EECEC91F0000E0601BB6F75
:1000F000000EBA6F000E506F000E006FB2C6BEF653
:10010000B3C6BFF6B4C6C0F6B5C6C1F646D11EC565
:1001100001F51FC502F5C5EC91F001C5B0F602C5A9
:10012000B1F60601B105B011D8B410D01B0EB0194C
:10013000B111D8A40BD01EC505F51FC506F5990E43
:10014000076E050E086EECEC91F031D1BEC605F5D8
:10015000BFC606F586EC91F005C5C2F606C5C3F626
:10016000A00E0A6E060E0B6EFF0E0601C215286E5B
:10017000000EC315296E28C50CF529C50DF5000E16
:100180000DBEFF0E0E6E0F6E000E116E020E106E83
:100190001AEC89F0500E056E060E066EFD0E076E07
:1001A000060E086E9AEC90F0500E056E060E066E66
:1001B000A00E076E060E086E9AEC90F00601C3BF03
:1001C00011D0C35104E1200EC25DD8A00BD0C3BF33
:1001D00006D0C35107E17F0EC25DD8B003D0C2C6BE
:1001E000A0F602D02E0EA06F000EA16F000E056EBD
:1001F000060E066EA00E076E060E086E9AEC90F0C4
:100200000601BA51BB11D8A426D0A00E0A6E060E64
:100210000B6EBEC60CF5BFC60DF5C0C60EF5C1C649
:100220000FF5000E116E060E106E1AEC89F01EC549
:1002300005F51FC506F5A00E076E060E086EECEC60
:1002400091F01EC505F51FC506F5F10E076E060EE9
:10025000086EECEC91F00601BA4BBB2BBBBF06D08D
:10026000BB510EE1100EBA5DD8B00AD0B651BE5DDA
:10027000B751BF59B851C059B951C159D8A087D049
:10028000000EBB6F000EBA6F500E056E060E066EA6
:100290006EEC91F0055030080601C26F0650D8A0F0
:1002A000E82A0008C36F000EBD6F000EBC6F0DD0B2
:1002B000500E056E060E066EFD0E076E060E086EDB
:1002C0009AEC90F00601BC4BBD2BC251BC5DBD51F8
:1002D000800A286EC351800A2858D8A0E9D7000E9A
:1002E000056E060E066E6EEC91F0055010080601C4
:1002F000C26F0650D8A0E82A0008C36F000EBD6F79
:10030000000EBC6F0DD0000E056E060E066EFD0EC3
:10031000076E060E086E9AEC90F00601BC4BBD2BE2
:10032000C251BC5DBD51800A286EC351800A285855
:10033000D8A0E9D71EC505F51FC506F5500E076EF6
:10034000060E086EECEC91F01EC505F51FC506F50E
:10035000F50E076E060E086EECEC91F01EC505F565
:100360001FC506F5000E076E060E086EECEC91F048
:100370001EC505F51FC506F5F80E076E060E086EBC
:10038000ECEC91F0000E0601506F000E006F010EB4
:10039000BE27000EBF23C023C123BE51B65DBF518F
:1003A000B759C051B859C151B959D8B0B0D6BEC665
:1003B0001EF5BFC61FF5C0C620F5C1C621F5120047
:1003C000000E196E000E186E10C52CF511C52DF516
:1003D0002CC526F52DC527F5000E2B6E400E2A6E76
:1003E00020D02CC5D9F42DC5DAF4200EDE18D8B4EF
:1003F0000CD02CC5D9F42DC5DAF426C5E1F427C5F7
:10040000E2F4DFC4E7F4264A272A2CC5D9F42DC527
:10041000DAF4DF50D8B40CD02C4A2D2A2A06D8A002
:100420002B062BBE05D02B50DCE12A04D8B0D9D73F
:1004300010C52CF511C52DF520EE02F02C50D92653
:100440002D50DA22DF501E6E20EE03F02C50D926FC
:100450002D50DA22DF501F6E000E206E1E0E056E2C
:10046000050E066E6CEC8BF005C528F506C529F562
:10047000000E1D6E000E1C6E000E2B6E000E2A6EFE
:1004800038D02AC512F52BC513F5D890123613367D
:1004900012502C24146E13502D20156E020E1424AD
:1004A000D96E000E1520DA6EDF501E6E2AC512F5C9
:1004B0002BC513F5D8901236133612502C24146E17
:1004C00013502D20156E030E1424D96E000E152026
:1004D000DA6EDF501F6E000E206E1E0E056E050ECA
:1004E000066E6CEC8BF005501C2606501D222A4A25
:1004F0002B2A28502A5C2B50800A126E2950800A21
:100500001258D8A0BED728C512F529C513F5D89022
:100510001236133612502C24146E13502D20156EE3
:10052000020E1424D96E000E1520DA6EDF501E6EF6
:1005300028C512F529C513F5D89012361336125076
:100540002C24146E13502D20156E030E1424D96E16
:10055000000E1520DA6EDF501F6E000E206E1E0E8C
:10056000056E050E066E6CEC8BF005C51AF506C51A
:100570001BF5FF0E1C14126E000E1D14136EFF0EE1
:1005800012181C6E13501D6E1A501C1804E11B50DB
:100590001D18D8B405D0000E116E020E106E120098
:1005A0002CC5D9F42DC5DAF4530EDE18D8B4C8D052
:1005B000DBD02CC526F52DC527F5080E2C242C6E76
:1005C000000E2D202D6E000E2B6E000E2A6E20D0F8
:1005D0002CC5D9F42DC5DAF4DF501E6E2C4A2D2A15
:1005E0002CC5D9F42DC5DAF4DF501F6E2C4A2D2A04
:1005F000000E206E1E0E056E050E066E6CEC8BF066
:10060000055026C5D9F427C5DAF4DF6E264A272A15
:10061000FD0E2824126EFF0E2920136E12502A5C44
:100620002B50800A146E1350800A1458D8A0D0D7CB
:1006300026C5D9F427C5DAF4000EDF6E000E196E58
:10064000030E186E91D020EE04F02C50D9262D50B8
:10065000DA22DF501E6E20EE05F02C50D9262D50E8
:10066000DA22DF501F6E20EE06F02C50D9262D50D6
:10067000DA22DF50206E20EE07F02C50D9262D50C4
:10068000DA22DF50216E000E226E1E0E056E050E60
:10069000066E6CEC8BF005C516F506C517F5080E51
:1006A0002C242C6E000E2D202D6E000E2B6E000EB5
:1006B0002A6E2AD02CC5D9F42DC5DAF4DF501E6E6F
:1006C0002C4A2D2A2CC5D9F42DC5DAF4DF501F6E23
:1006D0002C4A2D2A000E206E1E0E056E050E066E8B
:1006E0006CEC8BF005C51AF506C51BF516C50AF5A9
:1006F00017C50BF51AC50CF51BC50DF5FEEC91F0F1
:10070000164A172A2A4A2B2AFD0E2824126EFF0E9B
:100710002920136E12502A5C2B50800A146E13503D
:10072000800A1458D8A0C6D758C5D9F459C5DAF4E8
:10073000000EDF6E19D0000E196E010E186EF4D780
:1007400020EE01F02C50D9262D50DA22DF50300A4D
:10075000D8B42FD7010AD8B476D7040AD8B4E4D7CE
:100760000C0AD8B4E8D7E0D718C510F519C511F5AB
:100770001200000E4B6E000E4A6E0AD1000E066E7D
:10078000010E056EFB0E076E060E086EECEC91F086
:10079000000E0701A06F0601CC4BCD2B3AD1000E05
:1007A000076E010E066EA00E086E070E096E000E93
:1007B0000B6E400E0A6EEF0E0C6E060E0D6E0EECFA
:1007C00085F006C548F507C549F548044910D8A481
:1007D00020D1A00E056E070E066ECF0E076E060E18
:1007E000086E000E0A6E100E096E72EC8DF005C5D3
:1007F00056F506C557F557BE10D0575003E15604BD
:10080000D8A00BD0CFC606F5D0C607F59CEC8AF071
:1008100006C5CCF607C5CDF6FCD0000E0601CD6F9F
:10082000000E22D0000E1F6E010E1E6ECF0E206E27
:10083000060E216E56C522F557C523F5C8C624F508
:10084000C9C625F5CAC626F5CBC627F502EC80F049
:100850001EC5C8F61FC5C9F620C5CAF621C5CBF608
:100860000B0E0601CD6FB80ECC6FD3D0000E0A6E02
:10087000010E096ECF0E0B6E060E0C6E56C50DF5F1
:1008800057C50EF5A00E0F6E070E106E27EC90F0F8
:1008900009500A10D8B47FD7E3D7000E2F6E010E8F
:1008A0002E6ECF0E306E060E316E56C532F557C520
:1008B00033F5FFEC87F02E042F10D8B4D1D7A9D090
:1008C000000E1F6E010E1E6ECF0E206E060E216EE4
:1008D00056C522F557C523F556EC87F0C1D7CCECA9
:1008E0008BF0BED7000E0A6E010E096ECF0E0B6E96
:1008F000060E0C6E56C50DF557C50EF56EEC92F052
:10090000AFD7000E0A6E010E096ECF0E0B6E060EEB
:100910000C6E56C50DF557C50EF562EC92F0A0D7DA
:10092000000E0601CD6F000ECC6F000E066E010E9C
:10093000056EF80E076E060E086EECEC91F0000ED8
:10094000066E010E056EF80E076E060E086EECECD4
:1009500091F0000E4B6E010E4A6E5BD00B0E06013D
:10096000CD6FB80ECC6FC292680E466EE40EE82EC4
:10097000FED7462EFCD700D0C282000E066E010EB6
:10098000056E600E076E050E086EECEC91F041D01E
:10099000CCC646F5CDC647F54750000AD8B40DD0B1
:1009A000030AD8B412D0070AD8B414D0030AD8B4B2
:1009B0001CD00C0AD8B42AD030D74650000AD8B47C
:1009C000DDD6010AD8B4EBD628D74650F20AD8B4FF
:1009D00029D723D74650240AD8B448D7010AD8B417
:1009E0005CD75B0AD8B46CD718D74650300AD8B455
:1009F00079D70A0AD8B485D77E0AD8B4AFD7940A73
:100A0000D8B46DD7340AD8B48BD707D74650B80AB4
:100A100004D74AC544F54BC545F512000CC519F578
:100A20000DC51AF508C5D9F409C5DAF4DF50D8A404
:100A300008D019C5D9F41AC5DAF4000EDE6E000E1E
:100A4000DD6E000E136E500E126E000E116E000E53
:100A5000106E09D106C501F507C502F5C5EC91F088
:100A600001C517F502C518F518041710D8B4F8D049
:100A700017C514F5185004E1200E175CD8A02FD02C
:100A800018502DE17F0E175CD8B029D019C5D9F4C4
:100A90001AC5DAF40A50DE5C0B50DE58D8B01FD00D
:100AA00019C5D9F41AC5DAF4DEC40EF5DDC40FF5A4
:100AB0000E500824D96E0F500920DA6E14C5DFF4E9
:100AC00019C5D9F41AC5DAF4DE2A000EDD2206C5EE
:100AD00002F507C503F514C504F5CFEC92F00D0E31
:100AE00017181810D8A432D019C5D9F41AC5DAF4D9
:100AF0000A50DE5C0B50DE58D8B028D019C5D9F4A6
:100B00001AC5DAF4DEC40EF5DDC40FF50E50082464
:100B1000D96E0F500920DA6E000EDF6E000E136ED4
:100B2000000E126E000E116E010E106E06C502F55B
:100B300007C503F50D0E046ECFEC92F006C502F565
:100B400007C503F50A0E046ECFEC92F0080E1718D5
:100B50001810D8A45ED019C5D9F41AC5DAF4010E5C
:100B6000DBBE57D0010EDB5003E1DE04D8A051D02C
:100B700019C5D9F41AC5DAF4DEC415F5DDC416F5C5
:100B800020D015500824D96E16500920DA6E155061
:100B900008240E6E165009200F6EFF0E0E24E16E13
:100BA000FF0E0F20E26EDFC4E7F415500A5C0B5015
:100BB000800A0E6E1650800A0E58D8A00BD0154A27
:100BC000162A15500824D96E16500920DA6EDF5007
:100BD000D8A4D7D719C5D9F41AC5DAF4DE06000EA1
:100BE000DD5A06C502F507C503F5080E046ECFEC05
:100BF00092F006C502F507C503F5200E046ECFEC92
:100C000092F006C502F507C503F5080E046ECFEC99
:100C100092F01B0E17181810D8A422D019C5D9F4B9
:100C20001AC5DAF40A50DE5C0B50DE58D8B018D082
:100C300019C5D9F41AC5DAF4DEC40EF5DDC40FF512
:100C40000E500824D96E0F500920DA6E000EDF6EA8
:100C5000000E136E000E126E000E116E020E106E5C
:100C60001206D8A0130613BE05D0135002E11204D9
:100C7000D8B0F0D610C506F511C507F51200000E64
:100C8000126E000E116E4C50111804E14D501218E6
:100C9000D8B405D04C286AE14D28D8A467D0D890A4
:100CA0001134D96E1234DA6E500ED926050EDA22BE
:100CB000D8901134E16E1234E26E4E0EE126050E2C
:100CC000E222DE50E61804E1DE50E618D8B44ED039
:100CD0007AEC92F00009D8B449D011C50AF512C5D2
:100CE0000BF50A3A0B3AF00E0B160A500F0B0B12CB
:100CF000F00E0A16D30E0A24016E050E0B20026EAA
:100D0000D8901134D96E1234DA6E4E0ED926050EF3
:100D1000DA22DFC40CF5010EDE26DFC40DF5000E6D
:100D2000DD220CC503F50DC504F5D8EC92F0FCEC02
:100D300092F0D8901134D96E1234DA6E4E0ED92654
:100D4000050EDA22010EDB5004E1100EDE5CD8A0A5
:100D50000DD0D8901134D96E1234DA6E4E0ED926D9
:100D6000050EDA22000EDE6E000EDD6E114A122A2A
:100D700012BE89D7125004E1020E115CD8A083D7AD
:100D800002EC93F00009D8B4120052EC8EF00E6E13
:100D90001F0E0E18D8A410D0000E4D6E010E4C6E12
:100DA000000E066E000E056EC2EC8EF0000E066E92
:100DB000010E056EC2EC8EF0000E126E000E116E6A
:100DC0004C50111804E14D501218D8B405D04C28DD
:100DD00061E14D28D8A45ED0D8901134D96E123478
:100DE000DA6E540ED926050EDA22DEC40AF5DDC409
:100DF0000BF5010E0A240F6E000E0B20106E105022
:100E000004E1100E0F5CD8A004D0000E106E000E8E
:100E10000F6ED8901134D96E1234DA6E520ED92674
:100E2000050EDA220F50DE1804E11050DE18D8B497
:100E300031D011C50AF512C50BF50A3A0B3AF00E7E
:100E40000B160A500F0B0B12F00E0A16E30E0A24B3
:100E5000056E050E0B20066ED8901134D96E123433
:100E6000DA6E540ED926050EDA22DEC407F5DDC48B
:100E700008F50EC509F5C6EC92F0D8901134D96E7C
:100E80001234DA6E540ED926050EDA220FC5DEF4BE
:100E900010C5DDF4114A122A12BE92D7125005E194
:100EA000020E115CD8B012008BD7120023BE9CD06A
:100EB000235004E1040E225CD8A096D0000E3C6EB4
:100EC000000E3D6E000E3E6E000E3F6E20EE02F0F4
:100ED0002050D9262150DA22DEC405F5DDC406F5FE
:100EE0006CEC8BF005C540F506C541F507C542F52C
:100EF00008C543F520EE04F02050D9262150DA220F
:100F0000DEC405F5DDC406F56CEC8BF005C534F5E3
:100F100006C535F507C536F508C537F520EE06F0E8
:100F20002050D9262150DA22DEC405F5DDC406F5AD
:100F30006CEC8BF005C538F506C539F507C53AF5F3
:100F400008C53BF516D040C50AF541C50BF538C5B7
:100F50000CF539C50DF5FEEC91F0010E4026000EA2
:100F6000412242224322010E3C26000E3D223E2217
:100F70003F224050345C415035584250365843501F
:100F80003758D8B0E0D7240E0A6E050E0B6E3CC55C
:100F90000CF53DC50DF53EC50EF53FC50FF5000E30
:100FA000116E080E106E1AEC89F01EC505F51FC5EE
:100FB00006F5BD0E076E050E086EECEC91F01EC531
:100FC00005F51FC506F5240E076E050E086EECEC40
:100FD00091F01EC505F51FC506F56F0E076E050ECF
:100FE000086EECEC91F012001EC505F51FC506F564
:100FF0008C0E076E050E086EECEC91F01200000EE0
:10100000396E000E386E2EC506F52FC507F558C58A
:1010100008F559C509F5000E0B6E400E0A6EF30E69
:101020000C6E050E0D6E0EEC85F006C536F507C587
:1010300037F566D0000E396E000E386E73D058C585
:1010400010F559C511F5E0EC81F010C538F511C562
:1010500039F531D02EC505F52FC506F5350E076ECD
:10106000070E086EECEC91F0000E396E010E21D0E7
:101070002EC505F52FC506F57E0E076E070E086E08
:10108000ECEC91F02EC505F52FC506F558C507F512
:1010900059C508F5ECEC91F02EC505F52FC506F500
:1010A000C10E076E050E086EECEC91F0000E396E65
:1010B000000E386E0FD038C534F539C535F53550CA
:1010C000000AD8A407D03450020AD8B4C3D7010A02
:1010D000D8B4CED758C5D9F459C5DAF4000EDF6EAE
:1010E00021D0000E396E010E386E2EC505F52FC5C4
:1010F00006F5B20E076E050E086EECEC91F0EAD71D
:1011000036C534F537C535F53550000AD8A40AD0B0
:101110003450000AD8B48ED7010AD8B490D7030A45
:10112000D8B4DFD738C52EF539C52FF51200BFEC7E
:101130008FF0C292C284C2801CEC93F0BDEC92F09E
:10114000000E13EC93F022EC93F0000E0601C76F33
:10115000000EC66F000EC625D96E200EC721DA6EAE
:10116000000EDF6EC64BC72BC7BFF4D7200EC75D7E
:10117000D8A0F0D70BEC8EF08BEC8EF02BEC93F02C
:10118000D68E1A0EE82EFED700D0C282000E0601BF
:10119000CE6F0EEC93F005C5C4F606C5C5F63FEC60
:1011A00086F00EEC93F005C5C6F606C5C7F6060137
:1011B000C451C61904E1C551C719D8B40CD0C6052D
:1011C000C711D8B4C290C651C711D8B4C280C6C620
:1011D000C4F6C7C6C5F60EEC93F005040610D8A4F5
:1011E00012D0B9EC83F044504510D8B40CD0000EA6
:1011F000066E000E056E9DEC91F0000E066E000E60
:10120000056EC2EC8EF00EEC93F005500610D8B4CB
:1012100028EC93F00601CE2B140ECE65C0D7000E3D
:10122000CE6F0EEC93F005040610D8A4B8D756EC98
:1012300092F0B5D7000E196E000E186E000E176EE4
:10124000000E166E6FD00F0E0C141A6E1B6A300E45
:101250001A26000E1B221BBE0AD01B5004E13A0EB8
:101260001A5CD8A004D0070E1A26000E1B2218C53F
:101270001CF519C51DF51AD00AC505F50BC506F5EF
:101280001CC507F51DC508F50AC501F50BC502F516
:10129000FF0E1C24036EFF0E1D20046ED8EC92F08E
:1012A000096EC6EC92F01C06D8A01D061DBE05D026
:1012B0001D50E2E11C04D8B0DFD7184A192A0AC52C
:1012C00005F50BC506F518C507F519C508F5000E97
:1012D000096EC6EC92F00AC505F50BC506F5000EC1
:1012E000086E000E076E1AC509F5C6EC92F00CC523
:1012F00012F50DC513F50EC514F50FC515F5050E40
:1013000005D0D8901532143213321232E82EF9D7A4
:1013100012C50CF513C50DF514C50EF515C50FF561
:10132000164A172A1050165C1750800A126E115078
:10133000800A1258D8B0120086D7F80EF66E180E32
:10134000F76E010EF86E02EE00F210EEA6F0090044
:10135000F5C4EEF4E550E150FAE10A0EF66E160E11
:10136000F76E010EF86E02EE00F110EECEF00900FD
:10137000F5C4EEF4E550E150FAE13E0EF66E140EBF
:10138000F76E010EF86E02EE00F010EEFAF00900B2
:10139000F5C4EEF4E550E150FAE1440EF66E1A0E93
:1013A000F76E010EF86E01EE00F310EEA0F00900EA
:1013B000F5C4EEF4E550E150FAE1C00EF66E250EEC
:1013C000F76E010EF86E01EEF1F210EE0EF009006C
:1013D000F5C4EEF4E550E150FAE1560EF66E1E0E3D
:1013E000F76E010EF86E01EE60F110EE64F0090088
:1013F000F5C4EEF4E550E150FAE101EEA0F3400E41
:10140000EE6AE806FDE101EEC8F2290EEE6AE80692
:10141000FDE101EEC4F1310EEE6AE806FDE101EEF8
:101420004CF1100EEE6AE806FDE10401080E5D6F56
:10143000000E5E6F000E5F6F000197EF88F0205284
:101440002E2E2E2E2E2E2E2E2E2E2E2E2E2E2E2EBC
:101450002E2E2E2E2E2E2E2E2E2E2E2E2E2E2E2EAC
:101460002E2E2E2E2E2E2E2E2E2E2E2E2E5245533C
:10147000455420544152474554204350550D0A00CD
:10148000205A2E2E2E2E2E2E2E2E2E2E2E2E2E2E5E
:101490002E2E2E2E2E2E2E2E2E2E2E2E2E2E2E2E6C
:1014A0002E2E2E2E2E2E2E2E2E2E2E2E2E2E2E4545
:1014B000584954204D4F4E49544F520D0A00204672
:1014C0002053544152545F4144445228686578295E
:1014D00020454E445F4144445228686578292044A1
:1014E00041544128686578292E2E2E2E2E4D454DCB
:1014F0004F52592046494C4C0D0A002044205B4174
:1015000044445245535328686578295D2E2E2E2E6B
:101510002E2E2E2E2E2E2E2E2E2E2E2E2E2E2E2EEB
:101520002E2E2E2E2E2E2E2E2E2E4D454D4F525916
:101530002044554D500D0A0006C508F507C509F5AC
:101540000ED008C5D9F409C5DAF4DF50B3EC92F037
:1015500008C5D9F409C5DAF4DF6E084A092A08C5B6
:10156000D9F409C5DAF4DF50D8A4EBD7030E0B6E1B
:10157000E80E0A6E06C5D9F407C5DAF4DF500C6E22
:10158000440E0C18D8A404D0030E0B6EF20E0A6E93
:101590004C0E0C18D8A404D0040E0B6E240E0A6E48
:1015A000460E0C18D8A404D0040E0B6E7E0E0A6EE4
:1015B0003F0E0C18D8A404D0070E0B6ED00E0A6E86
:1015C000580E0C18D8A404D0070E0B6E300E0A6EFD
:1015D000420E0C18D8A404D0070E0B6E3A0E0A6EF9
:1015E0005A0E0C18D8A404D0070E0B6EE40E0A6E27
:1015F000520E0C18D8A404D0070E0B6E440E0A6EBF
:101600000AC506F50BC507F5120020582E2E2E2E02
:101610002E2E2E2E2E2E2E2E2E2E2E2E2E2E2E2EEA
:101620002E2E2E2E2E2E2E2E2E2E2E2E2E2E2E2EDA
:101630002E2E2E2E2E2E2E2E2E52454C52415345FE
:101640002048414C54205441524745542043505562
:101650000D0A00204C2E2E2E2E2E2E2E2E2E2E2E0D
:101660002E2E2E2E2E2E2E2E2E2E2E2E2E2E2E2E9A
:101670002E2E2E2E2E2E2E2E2E2E2E2E2E2E2E2E8A
:101680002E2E4C4F4144205320464F524D41542062
:10169000444154410D0A0020422E2E2E2E2E2E2E75
:1016A0002E2E2E2E2E2E2E2E2E2E2E2E2E2E2E2E5A
:1016B0002E2E2E2E2E2E2E2E2E2E2E2E2E2E2E2E4A
:1016C0002E2E2E2E2E2E48414C542054415247454A
:1016D00054204350550D0A00000E0D6E000E096E89
:1016E000000E0A6E000E0B6E000E0C6E40D005C58B
:1016F00001F506C502F50DC503F5046AD8EC92F0B4
:101700000F6E0F0E0D6401D03ED0300E0F6001D071
:101710003AD0390E0F6404D0410E0F6001D033D09F
:10172000460E0F6404D0610E0F6001D02CD0660EFF
:101730000F6401D028D0040ED89009360A360B3633
:101740000C36E82EF9D70F50D00F0E6E090E0E642E
:1017500002D0070E0E5E0F0E0E6402D0200E0E5E3B
:101760000E500926000E0A220B220C220D2A05C556
:1017700001F506C502F50DC503F5046AD8EC92F033
:101780000009D8A4B4D709C505F50AC506F50BC5E7
:1017900007F50CC508F51200000E066E010E056E69
:1017A000000E076E070E086EECEC91F0000E066E50
:1017B000010E056E670E076E070E086EECEC91F0D9
:1017C000000E066E010E056EBD0E076E080E086E49
:1017D000ECEC91F0000E066E010E056E490E076EE0
:1017E000090E086EECEC91F0000E066E010E056E0F
:1017F000800E076E080E086EECEC91F0000E066E7F
:10180000010E056E000E076E080E086EECEC91F0EE
:10181000000E066E010E056E8D0E076E090E086E27
:10182000ECEC91F0000E066E010E056E000E076ED8
:10183000090E086EECEC91F0000E066E010E056EBE
:10184000420E076E080E086EECEC91F01200000ECE
:10185000116E0BC505F50CC506F545EC90F00009B9
:10186000D8B448D00BC50DF50CC50EF50D3A0E3A9F
:10187000F00E0E160D500F0B0E12F00E0D16E30E9D
:101880000D24016E050E0E20026ED8900B34D96E19
:101890000C34DA6E520ED926050EDA22DFC40FF5AB
:1018A000010EDE26DFC410F5000EDD220FC503F5A4
:1018B00010C504F5D8EC92F0116ED8900B34D96EA7
:1018C0000C34DA6E520ED926050EDA22010EDB50E8
:1018D00004E1100EDE5CD8A00DD0D8900B34D96E88
:1018E0000C34DA6E520ED926050EDA22000EDE6EA8
:1018F000000EDD6E115012005374617274696E67D0
:101900002036383039207065726970686572616C94
:101910007320656D756C61746F72205B5049433143
:10192000384634375138345D2056657273696F6EAE
:1019300020302E324120323032322F30372F3039A2
:10194000202863293230323220636F6D6F6E656BF1
:101950006F0D0A0D0A0020414444522020207C20B3
:101960002B30202B31202B32202B33202B34202BDB
:1019700035202B36202B37202B38202B39202B419C
:10198000202B42202B43202B44202B45202B467C10
:1019900020415343494920434F44450D0A000BC59C
:1019A00005F50CC506F58EEC8FF00009D8B41200D1
:1019B0000BC50EF50CC50FF50E3A0F3AF00E0F16CB
:1019C0000E500F0B0F12F00E0E16D30E0E24056ED6
